{
  "_format": "hh-sol-artifact-1",
  "contractName": "LandlordItems",
  "sourceName": "contracts/LandlordItems.sol",
  "abi": [
    {
      "inputs": [],
      "stateMutability": "nonpayable",
      "type": "constructor"
    },
    {
      "anonymous": false,
      "inputs": [
        {
          "indexed": true,
          "internalType": "address",
          "name": "owner",
          "type": "address"
        },
        {
          "indexed": true,
          "internalType": "address",
          "name": "approved",
          "type": "address"
        },
        {
          "indexed": true,
          "internalType": "uint256",
          "name": "tokenId",
          "type": "uint256"
        }
      ],
      "name": "Approval",
      "type": "event"
    },
    {
      "anonymous": false,
      "inputs": [
        {
          "indexed": true,
          "internalType": "address",
          "name": "owner",
          "type": "address"
        },
        {
          "indexed": true,
          "internalType": "address",
          "name": "operator",
          "type": "address"
        },
        {
          "indexed": false,
          "internalType": "bool",
          "name": "approved",
          "type": "bool"
        }
      ],
      "name": "ApprovalForAll",
      "type": "event"
    },
    {
      "anonymous": false,
      "inputs": [
        {
          "indexed": true,
          "internalType": "address",
          "name": "from",
          "type": "address"
        },
        {
          "indexed": true,
          "internalType": "address",
          "name": "to",
          "type": "address"
        },
        {
          "indexed": true,
          "internalType": "uint256",
          "name": "tokenId",
          "type": "uint256"
        }
      ],
      "name": "Transfer",
      "type": "event"
    },
    {
      "inputs": [
        {
          "internalType": "address",
          "name": "to",
          "type": "address"
        },
        {
          "internalType": "uint256",
          "name": "tokenId",
          "type": "uint256"
        }
      ],
      "name": "approve",
      "outputs": [],
      "stateMutability": "nonpayable",
      "type": "function"
    },
    {
      "inputs": [
        {
          "internalType": "address",
          "name": "landlord",
          "type": "address"
        },
        {
          "internalType": "string",
          "name": "tokenUrl",
          "type": "string"
        }
      ],
      "name": "awardItem",
      "outputs": [
        {
          "internalType": "uint256",
          "name": "",
          "type": "uint256"
        }
      ],
      "stateMutability": "nonpayable",
      "type": "function"
    },
    {
      "inputs": [
        {
          "internalType": "address",
          "name": "owner",
          "type": "address"
        }
      ],
      "name": "balanceOf",
      "outputs": [
        {
          "internalType": "uint256",
          "name": "",
          "type": "uint256"
        }
      ],
      "stateMutability": "view",
      "type": "function"
    },
    {
      "inputs": [
        {
          "internalType": "uint256",
          "name": "tokenId",
          "type": "uint256"
        }
      ],
      "name": "getApproved",
      "outputs": [
        {
          "internalType": "address",
          "name": "",
          "type": "address"
        }
      ],
      "stateMutability": "view",
      "type": "function"
    },
    {
      "inputs": [
        {
          "internalType": "address",
          "name": "owner",
          "type": "address"
        },
        {
          "internalType": "address",
          "name": "operator",
          "type": "address"
        }
      ],
      "name": "isApprovedForAll",
      "outputs": [
        {
          "internalType": "bool",
          "name": "",
          "type": "bool"
        }
      ],
      "stateMutability": "view",
      "type": "function"
    },
    {
      "inputs": [],
      "name": "name",
      "outputs": [
        {
          "internalType": "string",
          "name": "",
          "type": "string"
        }
      ],
      "stateMutability": "view",
      "type": "function"
    },
    {
      "inputs": [
        {
          "internalType": "uint256",
          "name": "tokenId",
          "type": "uint256"
        }
      ],
      "name": "ownerOf",
      "outputs": [
        {
          "internalType": "address",
          "name": "",
          "type": "address"
        }
      ],
      "stateMutability": "view",
      "type": "function"
    },
    {
      "inputs": [
        {
          "internalType": "address",
          "name": "from",
          "type": "address"
        },
        {
          "internalType": "address",
          "name": "to",
          "type": "address"
        },
        {
          "internalType": "uint256",
          "name": "tokenId",
          "type": "uint256"
        }
      ],
      "name": "safeTransferFrom",
      "outputs": [],
      "stateMutability": "nonpayable",
      "type": "function"
    },
    {
      "inputs": [
        {
          "internalType": "address",
          "name": "from",
          "type": "address"
        },
        {
          "internalType": "address",
          "name": "to",
          "type": "address"
        },
        {
          "internalType": "uint256",
          "name": "tokenId",
          "type": "uint256"
        },
        {
          "internalType": "bytes",
          "name": "data",
          "type": "bytes"
        }
      ],
      "name": "safeTransferFrom",
      "outputs": [],
      "stateMutability": "nonpayable",
      "type": "function"
    },
    {
      "inputs": [
        {
          "internalType": "address",
          "name": "operator",
          "type": "address"
        },
        {
          "internalType": "bool",
          "name": "approved",
          "type": "bool"
        }
      ],
      "name": "setApprovalForAll",
      "outputs": [],
      "stateMutability": "nonpayable",
      "type": "function"
    },
    {
      "inputs": [
        {
          "internalType": "bytes4",
          "name": "interfaceId",
          "type": "bytes4"
        }
      ],
      "name": "supportsInterface",
      "outputs": [
        {
          "internalType": "bool",
          "name": "",
          "type": "bool"
        }
      ],
      "stateMutability": "view",
      "type": "function"
    },
    {
      "inputs": [],
      "name": "symbol",
      "outputs": [
        {
          "internalType": "string",
          "name": "",
          "type": "string"
        }
      ],
      "stateMutability": "view",
      "type": "function"
    },
    {
      "inputs": [
        {
          "internalType": "uint256",
          "name": "index",
          "type": "uint256"
        }
      ],
      "name": "tokenByIndex",
      "outputs": [
        {
          "internalType": "uint256",
          "name": "",
          "type": "uint256"
        }
      ],
      "stateMutability": "view",
      "type": "function"
    },
    {
      "inputs": [
        {
          "internalType": "address",
          "name": "owner",
          "type": "address"
        },
        {
          "internalType": "uint256",
          "name": "index",
          "type": "uint256"
        }
      ],
      "name": "tokenOfOwnerByIndex",
      "outputs": [
        {
          "internalType": "uint256",
          "name": "",
          "type": "uint256"
        }
      ],
      "stateMutability": "view",
      "type": "function"
    },
    {
      "inputs": [
        {
          "internalType": "uint256",
          "name": "tokenId",
          "type": "uint256"
        }
      ],
      "name": "tokenURI",
      "outputs": [
        {
          "internalType": "string",
          "name": "",
          "type": "string"
        }
      ],
      "stateMutability": "view",
      "type": "function"
    },
    {
      "inputs": [],
      "name": "totalSupply",
      "outputs": [
        {
          "internalType": "uint256",
          "name": "",
          "type": "uint256"
        }
      ],
      "stateMutability": "view",
      "type": "function"
    },
    {
      "inputs": [
        {
          "internalType": "address",
          "name": "from",
          "type": "address"
        },
        {
          "internalType": "address",
          "name": "to",
          "type": "address"
        },
        {
          "internalType": "uint256",
          "name": "tokenId",
          "type": "uint256"
        }
      ],
      "name": "transferFrom",
      "outputs": [],
      "stateMutability": "nonpayable",
      "type": "function"
    }
  ],
  "bytecode": "0x60806040523480156200001157600080fd5b5060408051808201825260088152671b185b991b1bdc9960c21b6020808301918252835180850190945260028452611b1b60f21b9084015281519192916200005c916000916200007b565b508051620000729060019060208401906200007b565b5050506200015e565b828054620000899062000121565b90600052602060002090601f016020900481019282620000ad5760008555620000f8565b82601f10620000c857805160ff1916838001178555620000f8565b82800160010185558215620000f8579182015b82811115620000f8578251825591602001919060010190620000db565b50620001069291506200010a565b5090565b5b808211156200010657600081556001016200010b565b600181811c908216806200013657607f821691505b602082108114156200015857634e487b7160e01b600052602260045260246000fd5b50919050565b611e29806200016e6000396000f3fe608060405234801561001057600080fd5b506004361061011b5760003560e01c80634f6ccce7116100b2578063a22cb46511610081578063c87b56dd11610066578063c87b56dd1461024f578063cf37834314610262578063e985e9c51461027557600080fd5b8063a22cb46514610229578063b88d4fde1461023c57600080fd5b80634f6ccce7146101e85780636352211e146101fb57806370a082311461020e57806395d89b411461022157600080fd5b806318160ddd116100ee57806318160ddd1461019d57806323b872dd146101af5780632f745c59146101c257806342842e0e146101d557600080fd5b806301ffc9a71461012057806306fdde0314610148578063081812fc1461015d578063095ea7b314610188575b600080fd5b61013361012e3660046119a8565b6102b1565b60405190151581526020015b60405180910390f35b6101506102f5565b60405161013f9190611a1d565b61017061016b366004611a30565b610387565b6040516001600160a01b03909116815260200161013f565b61019b610196366004611a65565b6103ae565b005b6008545b60405190815260200161013f565b61019b6101bd366004611a8f565b6104e5565b6101a16101d0366004611a65565b61055c565b61019b6101e3366004611a8f565b610616565b6101a16101f6366004611a30565b610631565b610170610209366004611a30565b6106d5565b6101a161021c366004611acb565b610760565b6101506107fa565b61019b610237366004611ae6565b610809565b61019b61024a366004611bae565b610818565b61015061025d366004611a30565b610896565b6101a1610270366004611c2a565b6109a7565b610133610283366004611c8c565b6001600160a01b03918216600090815260056020908152604080832093909416825291909152205460ff1690565b60006001600160e01b031982167f780e9d630000000000000000000000000000000000000000000000000000000014806102ef57506102ef826109de565b92915050565b60606000805461030490611cbf565b80601f016020809104026020016040519081016040528092919081815260200182805461033090611cbf565b801561037d5780601f106103525761010080835404028352916020019161037d565b820191906000526020600020905b81548152906001019060200180831161036057829003601f168201915b5050505050905090565b600061039282610a79565b506000908152600460205260409020546001600160a01b031690565b60006103b9826106d5565b9050806001600160a01b0316836001600160a01b031614156104485760405162461bcd60e51b815260206004820152602160248201527f4552433732313a20617070726f76616c20746f2063757272656e74206f776e6560448201527f720000000000000000000000000000000000000000000000000000000000000060648201526084015b60405180910390fd5b336001600160a01b038216148061046457506104648133610283565b6104d65760405162461bcd60e51b815260206004820152603d60248201527f4552433732313a20617070726f76652063616c6c6572206973206e6f7420746f60448201527f6b656e206f776e6572206f7220617070726f76656420666f7220616c6c000000606482015260840161043f565b6104e08383610ae0565b505050565b6104ef3382610b5b565b6105515760405162461bcd60e51b815260206004820152602d60248201527f4552433732313a2063616c6c6572206973206e6f7420746f6b656e206f776e6560448201526c1c881bdc88185c1c1c9bdd9959609a1b606482015260840161043f565b6104e0838383610bd9565b600061056783610760565b82106105db5760405162461bcd60e51b815260206004820152602b60248201527f455243373231456e756d657261626c653a206f776e657220696e646578206f7560448201527f74206f6620626f756e6473000000000000000000000000000000000000000000606482015260840161043f565b6001600160a01b0383166000908152600660205260408120906105ff846001611d10565b815260200190815260200160002054905092915050565b6104e083838360405180602001604052806000815250610818565b600061063c60085490565b82106106b05760405162461bcd60e51b815260206004820152602c60248201527f455243373231456e756d657261626c653a20676c6f62616c20696e646578206f60448201527f7574206f6620626f756e64730000000000000000000000000000000000000000606482015260840161043f565b600882815481106106c3576106c3611d28565b90600052602060002001549050919050565b6000818152600260205260408120546001600160a01b0316806102ef5760405162461bcd60e51b815260206004820152602160248201527f6f776e65726f663a204552433732313a20696e76616c696420746f6b656e204960448201527f4400000000000000000000000000000000000000000000000000000000000000606482015260840161043f565b60006001600160a01b0382166107de5760405162461bcd60e51b815260206004820152602960248201527f4552433732313a2061646472657373207a65726f206973206e6f74206120766160448201527f6c6964206f776e65720000000000000000000000000000000000000000000000606482015260840161043f565b506001600160a01b031660009081526003602052604090205490565b60606001805461030490611cbf565b610814338383610dec565b5050565b6108223383610b5b565b6108845760405162461bcd60e51b815260206004820152602d60248201527f4552433732313a2063616c6c6572206973206e6f7420746f6b656e206f776e6560448201526c1c881bdc88185c1c1c9bdd9959609a1b606482015260840161043f565b61089084848484610ebb565b50505050565b60606108a182610a79565b6000828152600a6020526040812080546108ba90611cbf565b80601f01602080910402602001604051908101604052809291908181526020018280546108e690611cbf565b80156109335780601f1061090857610100808354040283529160200191610933565b820191906000526020600020905b81548152906001019060200180831161091657829003601f168201915b50505050509050600061095160408051602081019091526000815290565b9050805160001415610964575092915050565b81511561099657808260405160200161097e929190611d3e565b60405160208183030381529060405292505050919050565b61099f84610f44565b949350505050565b6000806109b3600b5490565b90506109bf8482610fb7565b6109c98184611069565b6109d7600b80546001019055565b9392505050565b60006001600160e01b031982167f80ac58cd000000000000000000000000000000000000000000000000000000001480610a4157506001600160e01b031982167f5b5e139f00000000000000000000000000000000000000000000000000000000145b806102ef57507f01ffc9a7000000000000000000000000000000000000000000000000000000006001600160e01b03198316146102ef565b6000818152600260205260409020546001600160a01b0316610add5760405162461bcd60e51b815260206004820152601860248201527f4552433732313a20696e76616c696420746f6b656e2049440000000000000000604482015260640161043f565b50565b6000818152600460205260409020805473ffffffffffffffffffffffffffffffffffffffff19166001600160a01b0384169081179091558190610b22826106d5565b6001600160a01b03167f8c5be1e5ebec7d5bd14f71427d1e84f3dd0314c0f7b2291e5b200ac8c7c3b92560405160405180910390a45050565b600080610b67836106d5565b9050806001600160a01b0316846001600160a01b03161480610bae57506001600160a01b0380821660009081526005602090815260408083209388168352929052205460ff165b8061099f5750836001600160a01b0316610bc784610387565b6001600160a01b031614949350505050565b826001600160a01b0316610bec826106d5565b6001600160a01b031614610c505760405162461bcd60e51b815260206004820152602560248201527f4552433732313a207472616e736665722066726f6d20696e636f72726563742060448201526437bbb732b960d91b606482015260840161043f565b6001600160a01b038216610ccb5760405162461bcd60e51b8152602060048201526024808201527f4552433732313a207472616e7366657220746f20746865207a65726f2061646460448201527f7265737300000000000000000000000000000000000000000000000000000000606482015260840161043f565b610cd88383836001611112565b826001600160a01b0316610ceb826106d5565b6001600160a01b031614610d4f5760405162461bcd60e51b815260206004820152602560248201527f4552433732313a207472616e736665722066726f6d20696e636f72726563742060448201526437bbb732b960d91b606482015260840161043f565b6000818152600460209081526040808320805473ffffffffffffffffffffffffffffffffffffffff199081169091556001600160a01b0387811680865260038552838620805460001901905590871680865283862080546001019055868652600290945282852080549092168417909155905184937fddf252ad1be2c89b69c2b068fc378daa952ba7f163c4a11628f55a4df523b3ef91a4505050565b816001600160a01b0316836001600160a01b03161415610e4e5760405162461bcd60e51b815260206004820152601960248201527f4552433732313a20617070726f766520746f2063616c6c657200000000000000604482015260640161043f565b6001600160a01b03838116600081815260056020908152604080832094871680845294825291829020805460ff191686151590811790915591519182527f17307eab39ab6107e8899845ad3d59bd9653f200f220920489ca2b5937696c31910160405180910390a3505050565b610ec6848484610bd9565b610ed28484848461125a565b6108905760405162461bcd60e51b815260206004820152603260248201527f4552433732313a207472616e7366657220746f206e6f6e20455243373231526560448201527f63656976657220696d706c656d656e7465720000000000000000000000000000606482015260840161043f565b6060610f4f82610a79565b6000610f6660408051602081019091526000815290565b90506000815111610f8657604051806020016040528060008152506109d7565b80610f90846113bd565b604051602001610fa1929190611d3e565b6040516020818303038152906040529392505050565b6001600160a01b03821661100d5760405162461bcd60e51b815260206004820181905260248201527f4552433732313a206d696e7420746f20746865207a65726f2061646472657373604482015260640161043f565b6110178282611467565b611021828261160d565b61081481600880546000838152600960205260408120829055600182018355919091527ff3f7a9fe364faab93b216da50a3214154f22a0a2b415b23a84c8169e8b636ee30155565b6000828152600260205260409020546001600160a01b03166110f35760405162461bcd60e51b815260206004820152602e60248201527f45524337323155524953746f726167653a2055524920736574206f66206e6f6e60448201527f6578697374656e7420746f6b656e000000000000000000000000000000000000606482015260840161043f565b6000828152600a6020908152604090912082516104e0928401906118f9565b61111e84848484611651565b60018111156111955760405162461bcd60e51b815260206004820152603560248201527f455243373231456e756d657261626c653a20636f6e736563757469766520747260448201527f616e7366657273206e6f7420737570706f727465640000000000000000000000606482015260840161043f565b816001600160a01b0385166111f1576111ec81600880546000838152600960205260408120829055600182018355919091527ff3f7a9fe364faab93b216da50a3214154f22a0a2b415b23a84c8169e8b636ee30155565b611214565b836001600160a01b0316856001600160a01b0316146112145761121485826116d9565b6001600160a01b0384166112305761122b81611768565b611253565b846001600160a01b0316846001600160a01b03161461125357611253848261160d565b5050505050565b60006001600160a01b0384163b156113b257604051630a85bd0160e11b81526001600160a01b0385169063150b7a029061129e903390899088908890600401611d6d565b602060405180830381600087803b1580156112b857600080fd5b505af19250505080156112e8575060408051601f3d908101601f191682019092526112e591810190611da9565b60015b611398573d808015611316576040519150601f19603f3d011682016040523d82523d6000602084013e61131b565b606091505b5080516113905760405162461bcd60e51b815260206004820152603260248201527f4552433732313a207472616e7366657220746f206e6f6e20455243373231526560448201527f63656976657220696d706c656d656e7465720000000000000000000000000000606482015260840161043f565b805181602001fd5b6001600160e01b031916630a85bd0160e11b14905061099f565b506001949350505050565b606060006113ca83611817565b600101905060008167ffffffffffffffff8111156113ea576113ea611b22565b6040519080825280601f01601f191660200182016040528015611414576020820181803683370190505b5090508181016020015b600019017f3031323334353637383961626364656600000000000000000000000000000000600a86061a8153600a850494508461145a5761145f565b61141e565b509392505050565b6001600160a01b0382166114bd5760405162461bcd60e51b815260206004820181905260248201527f4552433732313a206d696e7420746f20746865207a65726f2061646472657373604482015260640161043f565b6000818152600260205260409020546001600160a01b0316156115225760405162461bcd60e51b815260206004820152601c60248201527f4552433732313a20746f6b656e20616c7265616479206d696e74656400000000604482015260640161043f565b611530600083836001611112565b6000818152600260205260409020546001600160a01b0316156115955760405162461bcd60e51b815260206004820152601c60248201527f4552433732313a20746f6b656e20616c7265616479206d696e74656400000000604482015260640161043f565b6001600160a01b0382166000818152600360209081526040808320805460010190558483526002909152808220805473ffffffffffffffffffffffffffffffffffffffff19168417905551839291907fddf252ad1be2c89b69c2b068fc378daa952ba7f163c4a11628f55a4df523b3ef908290a45050565b600061161883610760565b6001600160a01b039093166000908152600660209081526040808320868452825280832085905593825260079052919091209190915550565b6001811115610890576001600160a01b03841615611697576001600160a01b03841660009081526003602052604081208054839290611691908490611dc6565b90915550505b6001600160a01b03831615610890576001600160a01b038316600090815260036020526040812080548392906116ce908490611d10565b909155505050505050565b60006116e483610760565b60008381526007602052604090205490915080611735576001600160a01b03841660009081526006602090815260408083208584528252808320548484528184208190558352600790915290208190555b5060009182526007602090815260408084208490556001600160a01b039094168352600681528383209183525290812055565b60085460009061177a90600190611dc6565b600083815260096020526040812054600880549394509092849081106117a2576117a2611d28565b9060005260206000200154905080600883815481106117c3576117c3611d28565b60009182526020808320909101929092558281526009909152604080822084905585825281205560088054806117fb576117fb611ddd565b6001900381819060005260206000200160009055905550505050565b6000807a184f03e93ff9f4daa797ed6e38ed64bf6a1f0100000000000000008310611860577a184f03e93ff9f4daa797ed6e38ed64bf6a1f010000000000000000830492506040015b6d04ee2d6d415b85acef8100000000831061188c576d04ee2d6d415b85acef8100000000830492506020015b662386f26fc1000083106118aa57662386f26fc10000830492506010015b6305f5e10083106118c2576305f5e100830492506008015b61271083106118d657612710830492506004015b606483106118e8576064830492506002015b600a83106102ef5760010192915050565b82805461190590611cbf565b90600052602060002090601f016020900481019282611927576000855561196d565b82601f1061194057805160ff191683800117855561196d565b8280016001018555821561196d579182015b8281111561196d578251825591602001919060010190611952565b5061197992915061197d565b5090565b5b80821115611979576000815560010161197e565b6001600160e01b031981168114610add57600080fd5b6000602082840312156119ba57600080fd5b81356109d781611992565b60005b838110156119e05781810151838201526020016119c8565b838111156108905750506000910152565b60008151808452611a098160208601602086016119c5565b601f01601f19169290920160200192915050565b6020815260006109d760208301846119f1565b600060208284031215611a4257600080fd5b5035919050565b80356001600160a01b0381168114611a6057600080fd5b919050565b60008060408385031215611a7857600080fd5b611a8183611a49565b946020939093013593505050565b600080600060608486031215611aa457600080fd5b611aad84611a49565b9250611abb60208501611a49565b9150604084013590509250925092565b600060208284031215611add57600080fd5b6109d782611a49565b60008060408385031215611af957600080fd5b611b0283611a49565b915060208301358015158114611b1757600080fd5b809150509250929050565b634e487b7160e01b600052604160045260246000fd5b600067ffffffffffffffff80841115611b5357611b53611b22565b604051601f8501601f19908116603f01168101908282118183101715611b7b57611b7b611b22565b81604052809350858152868686011115611b9457600080fd5b858560208301376000602087830101525050509392505050565b60008060008060808587031215611bc457600080fd5b611bcd85611a49565b9350611bdb60208601611a49565b925060408501359150606085013567ffffffffffffffff811115611bfe57600080fd5b8501601f81018713611c0f57600080fd5b611c1e87823560208401611b38565b91505092959194509250565b60008060408385031215611c3d57600080fd5b611c4683611a49565b9150602083013567ffffffffffffffff811115611c6257600080fd5b8301601f81018513611c7357600080fd5b611c8285823560208401611b38565b9150509250929050565b60008060408385031215611c9f57600080fd5b611ca883611a49565b9150611cb660208401611a49565b90509250929050565b600181811c90821680611cd357607f821691505b60208210811415611cf457634e487b7160e01b600052602260045260246000fd5b50919050565b634e487b7160e01b600052601160045260246000fd5b60008219821115611d2357611d23611cfa565b500190565b634e487b7160e01b600052603260045260246000fd5b60008351611d508184602088016119c5565b835190830190611d648183602088016119c5565b01949350505050565b60006001600160a01b03808716835280861660208401525083604083015260806060830152611d9f60808301846119f1565b9695505050505050565b600060208284031215611dbb57600080fd5b81516109d781611992565b600082821015611dd857611dd8611cfa565b500390565b634e487b7160e01b600052603160045260246000fdfea264697066735822122099c567ae6ad0ddc6c8e5b5fbdffd248122b02b450698e050292ee84f9b1bbe7c64736f6c63430008090033",
  "linkReferences": {},
  "deployedLinkReferences": {}
}