{
  "_format": "hh-sol-artifact-1",
  "contractName": "HouseItems",
  "sourceName": "contracts/HouseItems.sol",
  "abi": [
    {
      "inputs": [],
      "stateMutability": "nonpayable",
      "type": "constructor"
    },
    {
      "anonymous": false,
      "inputs": [
        {
          "indexed": true,
          "internalType": "address",
          "name": "owner",
          "type": "address"
        },
        {
          "indexed": true,
          "internalType": "address",
          "name": "approved",
          "type": "address"
        },
        {
          "indexed": true,
          "internalType": "uint256",
          "name": "tokenId",
          "type": "uint256"
        }
      ],
      "name": "Approval",
      "type": "event"
    },
    {
      "anonymous": false,
      "inputs": [
        {
          "indexed": true,
          "internalType": "address",
          "name": "owner",
          "type": "address"
        },
        {
          "indexed": true,
          "internalType": "address",
          "name": "operator",
          "type": "address"
        },
        {
          "indexed": false,
          "internalType": "bool",
          "name": "approved",
          "type": "bool"
        }
      ],
      "name": "ApprovalForAll",
      "type": "event"
    },
    {
      "anonymous": false,
      "inputs": [
        {
          "indexed": true,
          "internalType": "address",
          "name": "from",
          "type": "address"
        },
        {
          "indexed": true,
          "internalType": "address",
          "name": "to",
          "type": "address"
        },
        {
          "indexed": true,
          "internalType": "uint256",
          "name": "tokenId",
          "type": "uint256"
        }
      ],
      "name": "Transfer",
      "type": "event"
    },
    {
      "inputs": [
        {
          "internalType": "uint256",
          "name": "tokenId",
          "type": "uint256"
        }
      ],
      "name": "CancleItem",
      "outputs": [],
      "stateMutability": "nonpayable",
      "type": "function"
    },
    {
      "inputs": [
        {
          "internalType": "address",
          "name": "to",
          "type": "address"
        },
        {
          "internalType": "uint256",
          "name": "tokenId",
          "type": "uint256"
        }
      ],
      "name": "approve",
      "outputs": [],
      "stateMutability": "nonpayable",
      "type": "function"
    },
    {
      "inputs": [
        {
          "internalType": "address",
          "name": "landlord",
          "type": "address"
        }
      ],
      "name": "awardHouseItem",
      "outputs": [
        {
          "internalType": "uint256",
          "name": "",
          "type": "uint256"
        }
      ],
      "stateMutability": "nonpayable",
      "type": "function"
    },
    {
      "inputs": [
        {
          "internalType": "address",
          "name": "owner",
          "type": "address"
        }
      ],
      "name": "balanceOf",
      "outputs": [
        {
          "internalType": "uint256",
          "name": "",
          "type": "uint256"
        }
      ],
      "stateMutability": "view",
      "type": "function"
    },
    {
      "inputs": [
        {
          "internalType": "uint256",
          "name": "tokenId",
          "type": "uint256"
        }
      ],
      "name": "getApproved",
      "outputs": [
        {
          "internalType": "address",
          "name": "",
          "type": "address"
        }
      ],
      "stateMutability": "view",
      "type": "function"
    },
    {
      "inputs": [
        {
          "internalType": "address",
          "name": "owner",
          "type": "address"
        },
        {
          "internalType": "address",
          "name": "operator",
          "type": "address"
        }
      ],
      "name": "isApprovedForAll",
      "outputs": [
        {
          "internalType": "bool",
          "name": "",
          "type": "bool"
        }
      ],
      "stateMutability": "view",
      "type": "function"
    },
    {
      "inputs": [],
      "name": "name",
      "outputs": [
        {
          "internalType": "string",
          "name": "",
          "type": "string"
        }
      ],
      "stateMutability": "view",
      "type": "function"
    },
    {
      "inputs": [
        {
          "internalType": "uint256",
          "name": "tokenId",
          "type": "uint256"
        }
      ],
      "name": "ownerOf",
      "outputs": [
        {
          "internalType": "address",
          "name": "",
          "type": "address"
        }
      ],
      "stateMutability": "view",
      "type": "function"
    },
    {
      "inputs": [
        {
          "internalType": "address",
          "name": "from",
          "type": "address"
        },
        {
          "internalType": "address",
          "name": "to",
          "type": "address"
        },
        {
          "internalType": "uint256",
          "name": "tokenId",
          "type": "uint256"
        }
      ],
      "name": "safeTransferFrom",
      "outputs": [],
      "stateMutability": "nonpayable",
      "type": "function"
    },
    {
      "inputs": [
        {
          "internalType": "address",
          "name": "from",
          "type": "address"
        },
        {
          "internalType": "address",
          "name": "to",
          "type": "address"
        },
        {
          "internalType": "uint256",
          "name": "tokenId",
          "type": "uint256"
        },
        {
          "internalType": "bytes",
          "name": "data",
          "type": "bytes"
        }
      ],
      "name": "safeTransferFrom",
      "outputs": [],
      "stateMutability": "nonpayable",
      "type": "function"
    },
    {
      "inputs": [
        {
          "internalType": "address",
          "name": "operator",
          "type": "address"
        },
        {
          "internalType": "bool",
          "name": "approved",
          "type": "bool"
        }
      ],
      "name": "setApprovalForAll",
      "outputs": [],
      "stateMutability": "nonpayable",
      "type": "function"
    },
    {
      "inputs": [
        {
          "internalType": "bytes4",
          "name": "interfaceId",
          "type": "bytes4"
        }
      ],
      "name": "supportsInterface",
      "outputs": [
        {
          "internalType": "bool",
          "name": "",
          "type": "bool"
        }
      ],
      "stateMutability": "view",
      "type": "function"
    },
    {
      "inputs": [],
      "name": "symbol",
      "outputs": [
        {
          "internalType": "string",
          "name": "",
          "type": "string"
        }
      ],
      "stateMutability": "view",
      "type": "function"
    },
    {
      "inputs": [
        {
          "internalType": "uint256",
          "name": "index",
          "type": "uint256"
        }
      ],
      "name": "tokenByIndex",
      "outputs": [
        {
          "internalType": "uint256",
          "name": "",
          "type": "uint256"
        }
      ],
      "stateMutability": "view",
      "type": "function"
    },
    {
      "inputs": [
        {
          "internalType": "address",
          "name": "owner",
          "type": "address"
        },
        {
          "internalType": "uint256",
          "name": "index",
          "type": "uint256"
        }
      ],
      "name": "tokenOfOwnerByIndex",
      "outputs": [
        {
          "internalType": "uint256",
          "name": "",
          "type": "uint256"
        }
      ],
      "stateMutability": "view",
      "type": "function"
    },
    {
      "inputs": [
        {
          "internalType": "uint256",
          "name": "tokenId",
          "type": "uint256"
        }
      ],
      "name": "tokenURI",
      "outputs": [
        {
          "internalType": "string",
          "name": "",
          "type": "string"
        }
      ],
      "stateMutability": "view",
      "type": "function"
    },
    {
      "inputs": [],
      "name": "totalSupply",
      "outputs": [
        {
          "internalType": "uint256",
          "name": "",
          "type": "uint256"
        }
      ],
      "stateMutability": "view",
      "type": "function"
    },
    {
      "inputs": [
        {
          "internalType": "address",
          "name": "from",
          "type": "address"
        },
        {
          "internalType": "address",
          "name": "to",
          "type": "address"
        },
        {
          "internalType": "uint256",
          "name": "tokenId",
          "type": "uint256"
        }
      ],
      "name": "transferFrom",
      "outputs": [],
      "stateMutability": "nonpayable",
      "type": "function"
    }
  ],
  "bytecode": "0x60806040523480156200001157600080fd5b506040805180820182526005815264486f75736560d81b602080830191825283518085019094526003845262484f4d60e81b9084015281519192916200005a9160009162000079565b5080516200007090600190602084019062000079565b5050506200015c565b82805462000087906200011f565b90600052602060002090601f016020900481019282620000ab5760008555620000f6565b82601f10620000c657805160ff1916838001178555620000f6565b82800160010185558215620000f6579182015b82811115620000f6578251825591602001919060010190620000d9565b506200010492915062000108565b5090565b5b8082111562000104576000815560010162000109565b600181811c908216806200013457607f821691505b602082108114156200015657634e487b7160e01b600052602260045260246000fd5b50919050565b611d62806200016c6000396000f3fe608060405234801561001057600080fd5b50600436106101365760003560e01c80636352211e116100b2578063a22cb46511610081578063c87b56dd11610066578063c87b56dd1461027d578063d9c6964714610290578063e985e9c5146102a357600080fd5b8063a22cb46514610257578063b88d4fde1461026a57600080fd5b80636352211e1461021657806370a08231146102295780637b8577c31461023c57806395d89b411461024f57600080fd5b806318160ddd116101095780632f745c59116100ee5780632f745c59146101dd57806342842e0e146101f05780634f6ccce71461020357600080fd5b806318160ddd146101b857806323b872dd146101ca57600080fd5b806301ffc9a71461013b57806306fdde0314610163578063081812fc14610178578063095ea7b3146101a3575b600080fd5b61014e610149366004611959565b6102df565b60405190151581526020015b60405180910390f35b61016b610323565b60405161015a91906119ce565b61018b6101863660046119e1565b6103b5565b6040516001600160a01b03909116815260200161015a565b6101b66101b1366004611a16565b6103dc565b005b6008545b60405190815260200161015a565b6101b66101d8366004611a40565b610513565b6101bc6101eb366004611a16565b61058a565b6101b66101fe366004611a40565b610644565b6101bc6102113660046119e1565b61065f565b61018b6102243660046119e1565b610703565b6101bc610237366004611a7c565b61078e565b6101b661024a3660046119e1565b610828565b61016b610834565b6101b6610265366004611a97565b610843565b6101b6610278366004611ae9565b610852565b61016b61028b3660046119e1565b6108d0565b6101bc61029e366004611a7c565b6109e1565b61014e6102b1366004611bc5565b6001600160a01b03918216600090815260056020908152604080832093909416825291909152205460ff1690565b60006001600160e01b031982167f780e9d6300000000000000000000000000000000000000000000000000000000148061031d575061031d82610a07565b92915050565b60606000805461033290611bf8565b80601f016020809104026020016040519081016040528092919081815260200182805461035e90611bf8565b80156103ab5780601f10610380576101008083540402835291602001916103ab565b820191906000526020600020905b81548152906001019060200180831161038e57829003601f168201915b5050505050905090565b60006103c082610aa2565b506000908152600460205260409020546001600160a01b031690565b60006103e782610703565b9050806001600160a01b0316836001600160a01b031614156104765760405162461bcd60e51b815260206004820152602160248201527f4552433732313a20617070726f76616c20746f2063757272656e74206f776e6560448201527f720000000000000000000000000000000000000000000000000000000000000060648201526084015b60405180910390fd5b336001600160a01b0382161480610492575061049281336102b1565b6105045760405162461bcd60e51b815260206004820152603d60248201527f4552433732313a20617070726f76652063616c6c6572206973206e6f7420746f60448201527f6b656e206f776e6572206f7220617070726f76656420666f7220616c6c000000606482015260840161046d565b61050e8383610b06565b505050565b61051d3382610b81565b61057f5760405162461bcd60e51b815260206004820152602d60248201527f4552433732313a2063616c6c6572206973206e6f7420746f6b656e206f776e6560448201526c1c881bdc88185c1c1c9bdd9959609a1b606482015260840161046d565b61050e838383610bff565b60006105958361078e565b82106106095760405162461bcd60e51b815260206004820152602b60248201527f455243373231456e756d657261626c653a206f776e657220696e646578206f7560448201527f74206f6620626f756e6473000000000000000000000000000000000000000000606482015260840161046d565b6001600160a01b03831660009081526006602052604081209061062d846001611c49565b815260200190815260200160002054905092915050565b61050e83838360405180602001604052806000815250610852565b600061066a60085490565b82106106de5760405162461bcd60e51b815260206004820152602c60248201527f455243373231456e756d657261626c653a20676c6f62616c20696e646578206f60448201527f7574206f6620626f756e64730000000000000000000000000000000000000000606482015260840161046d565b600882815481106106f1576106f1611c61565b90600052602060002001549050919050565b6000818152600260205260408120546001600160a01b03168061031d5760405162461bcd60e51b815260206004820152602160248201527f6f776e65726f663a204552433732313a20696e76616c696420746f6b656e204960448201527f4400000000000000000000000000000000000000000000000000000000000000606482015260840161046d565b60006001600160a01b03821661080c5760405162461bcd60e51b815260206004820152602960248201527f4552433732313a2061646472657373207a65726f206973206e6f74206120766160448201527f6c6964206f776e65720000000000000000000000000000000000000000000000606482015260840161046d565b506001600160a01b031660009081526003602052604090205490565b61083181610e12565b50565b60606001805461033290611bf8565b61084e338383610e2e565b5050565b61085c3383610b81565b6108be5760405162461bcd60e51b815260206004820152602d60248201527f4552433732313a2063616c6c6572206973206e6f7420746f6b656e206f776e6560448201526c1c881bdc88185c1c1c9bdd9959609a1b606482015260840161046d565b6108ca84848484610efd565b50505050565b60606108db82610aa2565b6000828152600a6020526040812080546108f490611bf8565b80601f016020809104026020016040519081016040528092919081815260200182805461092090611bf8565b801561096d5780601f106109425761010080835404028352916020019161096d565b820191906000526020600020905b81548152906001019060200180831161095057829003601f168201915b50505050509050600061098b60408051602081019091526000815290565b905080516000141561099e575092915050565b8151156109d05780826040516020016109b8929190611c77565b60405160208183030381529060405292505050919050565b6109d984610f86565b949350505050565b6000806109ed600b5490565b90506109f98382610ffa565b61031d600b80546001019055565b60006001600160e01b031982167f80ac58cd000000000000000000000000000000000000000000000000000000001480610a6a57506001600160e01b031982167f5b5e139f00000000000000000000000000000000000000000000000000000000145b8061031d57507f01ffc9a7000000000000000000000000000000000000000000000000000000006001600160e01b031983161461031d565b6000818152600260205260409020546001600160a01b03166108315760405162461bcd60e51b815260206004820152601860248201527f4552433732313a20696e76616c696420746f6b656e2049440000000000000000604482015260640161046d565b6000818152600460205260409020805473ffffffffffffffffffffffffffffffffffffffff19166001600160a01b0384169081179091558190610b4882610703565b6001600160a01b03167f8c5be1e5ebec7d5bd14f71427d1e84f3dd0314c0f7b2291e5b200ac8c7c3b92560405160405180910390a45050565b600080610b8d83610703565b9050806001600160a01b0316846001600160a01b03161480610bd457506001600160a01b0380821660009081526005602090815260408083209388168352929052205460ff165b806109d95750836001600160a01b0316610bed846103b5565b6001600160a01b031614949350505050565b826001600160a01b0316610c1282610703565b6001600160a01b031614610c765760405162461bcd60e51b815260206004820152602560248201527f4552433732313a207472616e736665722066726f6d20696e636f72726563742060448201526437bbb732b960d91b606482015260840161046d565b6001600160a01b038216610cf15760405162461bcd60e51b8152602060048201526024808201527f4552433732313a207472616e7366657220746f20746865207a65726f2061646460448201527f7265737300000000000000000000000000000000000000000000000000000000606482015260840161046d565b610cfe83838360016110ac565b826001600160a01b0316610d1182610703565b6001600160a01b031614610d755760405162461bcd60e51b815260206004820152602560248201527f4552433732313a207472616e736665722066726f6d20696e636f72726563742060448201526437bbb732b960d91b606482015260840161046d565b6000818152600460209081526040808320805473ffffffffffffffffffffffffffffffffffffffff199081169091556001600160a01b0387811680865260038552838620805460001901905590871680865283862080546001019055868652600290945282852080549092168417909155905184937fddf252ad1be2c89b69c2b068fc378daa952ba7f163c4a11628f55a4df523b3ef91a4505050565b610e1c33826111f4565b610e2581611283565b61083181611332565b816001600160a01b0316836001600160a01b03161415610e905760405162461bcd60e51b815260206004820152601960248201527f4552433732313a20617070726f766520746f2063616c6c657200000000000000604482015260640161046d565b6001600160a01b03838116600081815260056020908152604080832094871680845294825291829020805460ff191686151590811790915591519182527f17307eab39ab6107e8899845ad3d59bd9653f200f220920489ca2b5937696c31910160405180910390a3505050565b610f08848484610bff565b610f14848484846113e2565b6108ca5760405162461bcd60e51b815260206004820152603260248201527f4552433732313a207472616e7366657220746f206e6f6e20455243373231526560448201527f63656976657220696d706c656d656e7465720000000000000000000000000000606482015260840161046d565b6060610f9182610aa2565b6000610fa860408051602081019091526000815290565b90506000815111610fc85760405180602001604052806000815250610ff3565b80610fd284611545565b604051602001610fe3929190611c77565b6040516020818303038152906040525b9392505050565b6001600160a01b0382166110505760405162461bcd60e51b815260206004820181905260248201527f4552433732313a206d696e7420746f20746865207a65726f2061646472657373604482015260640161046d565b61105a82826115ef565b6110648282611795565b61084e81600880546000838152600960205260408120829055600182018355919091527ff3f7a9fe364faab93b216da50a3214154f22a0a2b415b23a84c8169e8b636ee30155565b6110b8848484846117d9565b600181111561112f5760405162461bcd60e51b815260206004820152603560248201527f455243373231456e756d657261626c653a20636f6e736563757469766520747260448201527f616e7366657273206e6f7420737570706f727465640000000000000000000000606482015260840161046d565b816001600160a01b03851661118b5761118681600880546000838152600960205260408120829055600182018355919091527ff3f7a9fe364faab93b216da50a3214154f22a0a2b415b23a84c8169e8b636ee30155565b6111ae565b836001600160a01b0316856001600160a01b0316146111ae576111ae85826111f4565b6001600160a01b0384166111ca576111c581611283565b6111ed565b846001600160a01b0316846001600160a01b0316146111ed576111ed8482611795565b5050505050565b60006111ff8361078e565b60008381526007602052604090205490915080611250576001600160a01b03841660009081526006602090815260408083208584528252808320548484528184208190558352600790915290208190555b5060009182526007602090815260408084208490556001600160a01b039094168352600681528383209183525290812055565b60085460009061129590600190611ca6565b600083815260096020526040812054600880549394509092849081106112bd576112bd611c61565b9060005260206000200154905080600883815481106112de576112de611c61565b600091825260208083209091019290925582815260099091526040808220849055858252812055600880548061131657611316611cbd565b6001900381819060005260206000200160009055905550505050565b600061133d82610703565b905061134d8160008460016110ac565b61135682610703565b6000838152600460209081526040808320805473ffffffffffffffffffffffffffffffffffffffff199081169091556001600160a01b0385168085526003845282852080546000190190558785526002909352818420805490911690555192935084927fddf252ad1be2c89b69c2b068fc378daa952ba7f163c4a11628f55a4df523b3ef908390a45050565b60006001600160a01b0384163b1561153a57604051630a85bd0160e11b81526001600160a01b0385169063150b7a0290611426903390899088908890600401611cd3565b602060405180830381600087803b15801561144057600080fd5b505af1925050508015611470575060408051601f3d908101601f1916820190925261146d91810190611d0f565b60015b611520573d80801561149e576040519150601f19603f3d011682016040523d82523d6000602084013e6114a3565b606091505b5080516115185760405162461bcd60e51b815260206004820152603260248201527f4552433732313a207472616e7366657220746f206e6f6e20455243373231526560448201527f63656976657220696d706c656d656e7465720000000000000000000000000000606482015260840161046d565b805181602001fd5b6001600160e01b031916630a85bd0160e11b1490506109d9565b506001949350505050565b6060600061155283611861565b600101905060008167ffffffffffffffff81111561157257611572611ad3565b6040519080825280601f01601f19166020018201604052801561159c576020820181803683370190505b5090508181016020015b600019017f3031323334353637383961626364656600000000000000000000000000000000600a86061a8153600a85049450846115e2576115e7565b6115a6565b509392505050565b6001600160a01b0382166116455760405162461bcd60e51b815260206004820181905260248201527f4552433732313a206d696e7420746f20746865207a65726f2061646472657373604482015260640161046d565b6000818152600260205260409020546001600160a01b0316156116aa5760405162461bcd60e51b815260206004820152601c60248201527f4552433732313a20746f6b656e20616c7265616479206d696e74656400000000604482015260640161046d565b6116b86000838360016110ac565b6000818152600260205260409020546001600160a01b03161561171d5760405162461bcd60e51b815260206004820152601c60248201527f4552433732313a20746f6b656e20616c7265616479206d696e74656400000000604482015260640161046d565b6001600160a01b0382166000818152600360209081526040808320805460010190558483526002909152808220805473ffffffffffffffffffffffffffffffffffffffff19168417905551839291907fddf252ad1be2c89b69c2b068fc378daa952ba7f163c4a11628f55a4df523b3ef908290a45050565b60006117a08361078e565b6001600160a01b039093166000908152600660209081526040808320868452825280832085905593825260079052919091209190915550565b60018111156108ca576001600160a01b0384161561181f576001600160a01b03841660009081526003602052604081208054839290611819908490611ca6565b90915550505b6001600160a01b038316156108ca576001600160a01b03831660009081526003602052604081208054839290611856908490611c49565b909155505050505050565b6000807a184f03e93ff9f4daa797ed6e38ed64bf6a1f01000000000000000083106118aa577a184f03e93ff9f4daa797ed6e38ed64bf6a1f010000000000000000830492506040015b6d04ee2d6d415b85acef810000000083106118d6576d04ee2d6d415b85acef8100000000830492506020015b662386f26fc1000083106118f457662386f26fc10000830492506010015b6305f5e100831061190c576305f5e100830492506008015b612710831061192057612710830492506004015b60648310611932576064830492506002015b600a831061031d5760010192915050565b6001600160e01b03198116811461083157600080fd5b60006020828403121561196b57600080fd5b8135610ff381611943565b60005b83811015611991578181015183820152602001611979565b838111156108ca5750506000910152565b600081518084526119ba816020860160208601611976565b601f01601f19169290920160200192915050565b602081526000610ff360208301846119a2565b6000602082840312156119f357600080fd5b5035919050565b80356001600160a01b0381168114611a1157600080fd5b919050565b60008060408385031215611a2957600080fd5b611a32836119fa565b946020939093013593505050565b600080600060608486031215611a5557600080fd5b611a5e846119fa565b9250611a6c602085016119fa565b9150604084013590509250925092565b600060208284031215611a8e57600080fd5b610ff3826119fa565b60008060408385031215611aaa57600080fd5b611ab3836119fa565b915060208301358015158114611ac857600080fd5b809150509250929050565b634e487b7160e01b600052604160045260246000fd5b60008060008060808587031215611aff57600080fd5b611b08856119fa565b9350611b16602086016119fa565b925060408501359150606085013567ffffffffffffffff80821115611b3a57600080fd5b818701915087601f830112611b4e57600080fd5b813581811115611b6057611b60611ad3565b604051601f8201601f19908116603f01168101908382118183101715611b8857611b88611ad3565b816040528281528a6020848701011115611ba157600080fd5b82602086016020830137600060208483010152809550505050505092959194509250565b60008060408385031215611bd857600080fd5b611be1836119fa565b9150611bef602084016119fa565b90509250929050565b600181811c90821680611c0c57607f821691505b60208210811415611c2d57634e487b7160e01b600052602260045260246000fd5b50919050565b634e487b7160e01b600052601160045260246000fd5b60008219821115611c5c57611c5c611c33565b500190565b634e487b7160e01b600052603260045260246000fd5b60008351611c89818460208801611976565b835190830190611c9d818360208801611976565b01949350505050565b600082821015611cb857611cb8611c33565b500390565b634e487b7160e01b600052603160045260246000fd5b60006001600160a01b03808716835280861660208401525083604083015260806060830152611d0560808301846119a2565b9695505050505050565b600060208284031215611d2157600080fd5b8151610ff38161194356fea26469706673582212207b7bb42429fb2e50cf247699854cd785cbd94bc3e969a56faa6429c10afb3c0a64736f6c63430008090033",
  "linkReferences": {},
  "deployedLinkReferences": {}
}