{
  "_format": "hh-sol-artifact-1",
  "contractName": "PwdEncode",
  "sourceName": "contracts/PwdEncode.sol",
  "abi": [
    {
      "inputs": [],
      "stateMutability": "nonpayable",
      "type": "constructor"
    },
    {
      "inputs": [],
      "name": "DOMAIN_SEPARATOR",
      "outputs": [
        {
          "internalType": "bytes32",
          "name": "",
          "type": "bytes32"
        }
      ],
      "stateMutability": "view",
      "type": "function"
    },
    {
      "inputs": [],
      "name": "PwdMsgData",
      "outputs": [
        {
          "internalType": "bytes32",
          "name": "",
          "type": "bytes32"
        }
      ],
      "stateMutability": "view",
      "type": "function"
    }
  ],
  "bytecode": "0x60a06040527f8fc6d003b71ad6778bff33b4a33feb541d84b1ccaf6b275f0b3c4a5d89f38c1360005534801561003457600080fd5b50604080518082018252600c81526b5061776e4d756c746953696760a01b6020918201528151808301835260018152603160f81b9082015281517f8b73c3c69bb8fe3d512ecc4cf759cc79239f7b179b0ffacaa9a75d522b39400f818301527f029b2ec07bcb978de2688fdfc5852551508ba7b2de97155f0f555720322b6fa3818401527fc89efdaa54c0f20c7adf612882df0950f5a951637e0307cdcb4c672f298b8bc66060820152466080808301919091523060a0808401919091528451808403909101815260c090920190935280519101209081905260ad6101226000396000603b015260ad6000f3fe6080604052348015600f57600080fd5b506004361060325760003560e01c80633644e515146037578063e487408b14606f575b600080fd5b605d7f000000000000000000000000000000000000000000000000000000000000000081565b60405190815260200160405180910390f35b605d6000548156fea2646970667358221220f0a6f7dc4227420c2b605ea9d48d81196917ba03352fc2e244ac93978185665164736f6c63430008090033",
  "linkReferences": {},
  "deployedLinkReferences": {}
}