{
  "_format": "hh-sol-artifact-1",
  "contractName": "RentManagement",
  "sourceName": "contracts/RentManagement.sol",
  "abi": [
    {
      "inputs": [
        {
          "internalType": "address",
          "name": "landlord",
          "type": "address"
        },
        {
          "internalType": "address",
          "name": "tenant",
          "type": "address"
        },
        {
          "internalType": "address",
          "name": "house",
          "type": "address"
        }
      ],
      "stateMutability": "nonpayable",
      "type": "constructor"
    },
    {
      "anonymous": false,
      "inputs": [
        {
          "indexed": true,
          "internalType": "address",
          "name": "owner",
          "type": "address"
        },
        {
          "indexed": true,
          "internalType": "address",
          "name": "spender",
          "type": "address"
        },
        {
          "indexed": false,
          "internalType": "uint256",
          "name": "value",
          "type": "uint256"
        }
      ],
      "name": "Approval",
      "type": "event"
    },
    {
      "anonymous": false,
      "inputs": [
        {
          "indexed": true,
          "internalType": "address",
          "name": "from",
          "type": "address"
        },
        {
          "indexed": true,
          "internalType": "address",
          "name": "to",
          "type": "address"
        },
        {
          "indexed": false,
          "internalType": "uint256",
          "name": "value",
          "type": "uint256"
        }
      ],
      "name": "Transfer",
      "type": "event"
    },
    {
      "inputs": [],
      "name": "DOMAIN_SEPARATOR",
      "outputs": [
        {
          "internalType": "bytes32",
          "name": "",
          "type": "bytes32"
        }
      ],
      "stateMutability": "view",
      "type": "function"
    },
    {
      "inputs": [
        {
          "internalType": "uint256",
          "name": "",
          "type": "uint256"
        }
      ],
      "name": "LandlordHouseItem",
      "outputs": [
        {
          "internalType": "string",
          "name": "title",
          "type": "string"
        },
        {
          "internalType": "uint256",
          "name": "itemId",
          "type": "uint256"
        },
        {
          "internalType": "uint256",
          "name": "area",
          "type": "uint256"
        },
        {
          "internalType": "uint256",
          "name": "rental",
          "type": "uint256"
        },
        {
          "internalType": "uint256",
          "name": "deposit",
          "type": "uint256"
        },
        {
          "internalType": "uint256",
          "name": "electricity",
          "type": "uint256"
        },
        {
          "internalType": "uint256",
          "name": "hotwater",
          "type": "uint256"
        },
        {
          "internalType": "uint256",
          "name": "coldwater",
          "type": "uint256"
        },
        {
          "internalType": "uint256",
          "name": "validTime",
          "type": "uint256"
        },
        {
          "internalType": "uint256",
          "name": "paymentTime",
          "type": "uint256"
        },
        {
          "internalType": "string",
          "name": "roomUrl",
          "type": "string"
        }
      ],
      "stateMutability": "view",
      "type": "function"
    },
    {
      "inputs": [
        {
          "internalType": "uint256",
          "name": "amount",
          "type": "uint256"
        }
      ],
      "name": "MintHouseToken",
      "outputs": [],
      "stateMutability": "nonpayable",
      "type": "function"
    },
    {
      "inputs": [],
      "name": "PwdMsgData",
      "outputs": [
        {
          "internalType": "bytes32",
          "name": "",
          "type": "bytes32"
        }
      ],
      "stateMutability": "view",
      "type": "function"
    },
    {
      "inputs": [
        {
          "internalType": "address",
          "name": "owner",
          "type": "address"
        },
        {
          "internalType": "address",
          "name": "spender",
          "type": "address"
        }
      ],
      "name": "allowance",
      "outputs": [
        {
          "internalType": "uint256",
          "name": "",
          "type": "uint256"
        }
      ],
      "stateMutability": "view",
      "type": "function"
    },
    {
      "inputs": [
        {
          "internalType": "address",
          "name": "spender",
          "type": "address"
        },
        {
          "internalType": "uint256",
          "name": "amount",
          "type": "uint256"
        }
      ],
      "name": "approve",
      "outputs": [
        {
          "internalType": "bool",
          "name": "",
          "type": "bool"
        }
      ],
      "stateMutability": "nonpayable",
      "type": "function"
    },
    {
      "inputs": [
        {
          "internalType": "address",
          "name": "account",
          "type": "address"
        }
      ],
      "name": "balanceOf",
      "outputs": [
        {
          "internalType": "uint256",
          "name": "",
          "type": "uint256"
        }
      ],
      "stateMutability": "view",
      "type": "function"
    },
    {
      "inputs": [
        {
          "internalType": "uint256",
          "name": "itemId",
          "type": "uint256"
        }
      ],
      "name": "cancleItems",
      "outputs": [],
      "stateMutability": "nonpayable",
      "type": "function"
    },
    {
      "inputs": [
        {
          "components": [
            {
              "internalType": "string",
              "name": "title",
              "type": "string"
            },
            {
              "internalType": "uint256",
              "name": "itemId",
              "type": "uint256"
            },
            {
              "internalType": "uint256",
              "name": "area",
              "type": "uint256"
            },
            {
              "internalType": "uint256",
              "name": "rental",
              "type": "uint256"
            },
            {
              "internalType": "uint256",
              "name": "deposit",
              "type": "uint256"
            },
            {
              "internalType": "uint256",
              "name": "electricity",
              "type": "uint256"
            },
            {
              "internalType": "uint256",
              "name": "hotwater",
              "type": "uint256"
            },
            {
              "internalType": "uint256",
              "name": "coldwater",
              "type": "uint256"
            },
            {
              "internalType": "uint256",
              "name": "validTime",
              "type": "uint256"
            },
            {
              "internalType": "uint256",
              "name": "paymentTime",
              "type": "uint256"
            },
            {
              "internalType": "string",
              "name": "roomUrl",
              "type": "string"
            }
          ],
          "internalType": "struct RentManagement.RoomRentInfo",
          "name": "roomRentInfo",
          "type": "tuple"
        }
      ],
      "name": "createItem",
      "outputs": [
        {
          "internalType": "bool",
          "name": "",
          "type": "bool"
        }
      ],
      "stateMutability": "nonpayable",
      "type": "function"
    },
    {
      "inputs": [],
      "name": "decimals",
      "outputs": [
        {
          "internalType": "uint8",
          "name": "",
          "type": "uint8"
        }
      ],
      "stateMutability": "view",
      "type": "function"
    },
    {
      "inputs": [
        {
          "internalType": "address",
          "name": "spender",
          "type": "address"
        },
        {
          "internalType": "uint256",
          "name": "subtractedValue",
          "type": "uint256"
        }
      ],
      "name": "decreaseAllowance",
      "outputs": [
        {
          "internalType": "bool",
          "name": "",
          "type": "bool"
        }
      ],
      "stateMutability": "nonpayable",
      "type": "function"
    },
    {
      "inputs": [
        {
          "internalType": "uint256",
          "name": "validTime",
          "type": "uint256"
        },
        {
          "internalType": "uint256",
          "name": "payTime",
          "type": "uint256"
        }
      ],
      "name": "getAllPayTime",
      "outputs": [
        {
          "internalType": "uint256",
          "name": "count",
          "type": "uint256"
        }
      ],
      "stateMutability": "pure",
      "type": "function"
    },
    {
      "inputs": [
        {
          "internalType": "uint256",
          "name": "itemId",
          "type": "uint256"
        }
      ],
      "name": "getBillInfo",
      "outputs": [
        {
          "components": [
            {
              "internalType": "bool[]",
              "name": "rentPayStatus",
              "type": "bool[]"
            },
            {
              "internalType": "uint256",
              "name": "electricityBalance",
              "type": "uint256"
            },
            {
              "internalType": "uint256",
              "name": "coldwaterBalance",
              "type": "uint256"
            },
            {
              "internalType": "uint256",
              "name": "hotwaterBalance",
              "type": "uint256"
            }
          ],
          "internalType": "struct RentManagement.Bill",
          "name": "BillInfo",
          "type": "tuple"
        }
      ],
      "stateMutability": "view",
      "type": "function"
    },
    {
      "inputs": [
        {
          "internalType": "uint256",
          "name": "itemId",
          "type": "uint256"
        }
      ],
      "name": "getItemsById",
      "outputs": [
        {
          "components": [
            {
              "internalType": "string",
              "name": "title",
              "type": "string"
            },
            {
              "internalType": "uint256",
              "name": "itemId",
              "type": "uint256"
            },
            {
              "internalType": "uint256",
              "name": "area",
              "type": "uint256"
            },
            {
              "internalType": "uint256",
              "name": "rental",
              "type": "uint256"
            },
            {
              "internalType": "uint256",
              "name": "deposit",
              "type": "uint256"
            },
            {
              "internalType": "uint256",
              "name": "electricity",
              "type": "uint256"
            },
            {
              "internalType": "uint256",
              "name": "hotwater",
              "type": "uint256"
            },
            {
              "internalType": "uint256",
              "name": "coldwater",
              "type": "uint256"
            },
            {
              "internalType": "uint256",
              "name": "validTime",
              "type": "uint256"
            },
            {
              "internalType": "uint256",
              "name": "paymentTime",
              "type": "uint256"
            },
            {
              "internalType": "string",
              "name": "roomUrl",
              "type": "string"
            }
          ],
          "internalType": "struct RentManagement.RoomRentInfo",
          "name": "ItemsInfo",
          "type": "tuple"
        }
      ],
      "stateMutability": "view",
      "type": "function"
    },
    {
      "inputs": [],
      "name": "getItemsContractInfo",
      "outputs": [
        {
          "components": [
            {
              "internalType": "string",
              "name": "title",
              "type": "string"
            },
            {
              "internalType": "uint256",
              "name": "itemId",
              "type": "uint256"
            },
            {
              "internalType": "uint256",
              "name": "area",
              "type": "uint256"
            },
            {
              "internalType": "address",
              "name": "landlord",
              "type": "address"
            },
            {
              "internalType": "address",
              "name": "tenant",
              "type": "address"
            },
            {
              "internalType": "uint256",
              "name": "rental",
              "type": "uint256"
            },
            {
              "internalType": "uint256",
              "name": "deposit",
              "type": "uint256"
            },
            {
              "internalType": "uint256",
              "name": "electricity",
              "type": "uint256"
            },
            {
              "internalType": "uint256",
              "name": "hotwater",
              "type": "uint256"
            },
            {
              "internalType": "uint256",
              "name": "coldwater",
              "type": "uint256"
            },
            {
              "internalType": "uint256",
              "name": "startTime",
              "type": "uint256"
            },
            {
              "internalType": "uint256",
              "name": "validTime",
              "type": "uint256"
            },
            {
              "internalType": "uint256",
              "name": "paymentTime",
              "type": "uint256"
            },
            {
              "internalType": "uint256",
              "name": "endTime",
              "type": "uint256"
            },
            {
              "internalType": "string",
              "name": "roomUrl",
              "type": "string"
            }
          ],
          "internalType": "struct RentManagement.RoomContractInfo[]",
          "name": "",
          "type": "tuple[]"
        }
      ],
      "stateMutability": "view",
      "type": "function"
    },
    {
      "inputs": [
        {
          "internalType": "uint256",
          "name": "itemId",
          "type": "uint256"
        }
      ],
      "name": "getItemsContractInfoById",
      "outputs": [
        {
          "components": [
            {
              "internalType": "string",
              "name": "title",
              "type": "string"
            },
            {
              "internalType": "uint256",
              "name": "itemId",
              "type": "uint256"
            },
            {
              "internalType": "uint256",
              "name": "area",
              "type": "uint256"
            },
            {
              "internalType": "address",
              "name": "landlord",
              "type": "address"
            },
            {
              "internalType": "address",
              "name": "tenant",
              "type": "address"
            },
            {
              "internalType": "uint256",
              "name": "rental",
              "type": "uint256"
            },
            {
              "internalType": "uint256",
              "name": "deposit",
              "type": "uint256"
            },
            {
              "internalType": "uint256",
              "name": "electricity",
              "type": "uint256"
            },
            {
              "internalType": "uint256",
              "name": "hotwater",
              "type": "uint256"
            },
            {
              "internalType": "uint256",
              "name": "coldwater",
              "type": "uint256"
            },
            {
              "internalType": "uint256",
              "name": "startTime",
              "type": "uint256"
            },
            {
              "internalType": "uint256",
              "name": "validTime",
              "type": "uint256"
            },
            {
              "internalType": "uint256",
              "name": "paymentTime",
              "type": "uint256"
            },
            {
              "internalType": "uint256",
              "name": "endTime",
              "type": "uint256"
            },
            {
              "internalType": "string",
              "name": "roomUrl",
              "type": "string"
            }
          ],
          "internalType": "struct RentManagement.RoomContractInfo",
          "name": "",
          "type": "tuple"
        }
      ],
      "stateMutability": "view",
      "type": "function"
    },
    {
      "inputs": [
        {
          "internalType": "address",
          "name": "landlord",
          "type": "address"
        }
      ],
      "name": "getLandlordRent",
      "outputs": [
        {
          "internalType": "uint256[]",
          "name": "",
          "type": "uint256[]"
        }
      ],
      "stateMutability": "view",
      "type": "function"
    },
    {
      "inputs": [
        {
          "internalType": "uint256",
          "name": "rid",
          "type": "uint256"
        }
      ],
      "name": "getLordInfo",
      "outputs": [
        {
          "components": [
            {
              "internalType": "string",
              "name": "name",
              "type": "string"
            },
            {
              "internalType": "enum RentManagement.Gender",
              "name": "gender",
              "type": "uint8"
            },
            {
              "internalType": "uint256",
              "name": "phone",
              "type": "uint256"
            },
            {
              "internalType": "string",
              "name": "idCard",
              "type": "string"
            },
            {
              "internalType": "string",
              "name": "cardUrl",
              "type": "string"
            }
          ],
          "internalType": "struct RentManagement.LandlordInfo",
          "name": "landlordInfo",
          "type": "tuple"
        }
      ],
      "stateMutability": "view",
      "type": "function"
    },
    {
      "inputs": [
        {
          "internalType": "uint256",
          "name": "itemId",
          "type": "uint256"
        }
      ],
      "name": "getPayStatu",
      "outputs": [
        {
          "internalType": "bool",
          "name": "payStatu",
          "type": "bool"
        }
      ],
      "stateMutability": "view",
      "type": "function"
    },
    {
      "inputs": [
        {
          "internalType": "uint256",
          "name": "stratTime",
          "type": "uint256"
        },
        {
          "internalType": "uint256",
          "name": "payTime",
          "type": "uint256"
        }
      ],
      "name": "getPayTime",
      "outputs": [
        {
          "internalType": "uint256",
          "name": "count",
          "type": "uint256"
        }
      ],
      "stateMutability": "view",
      "type": "function"
    },
    {
      "inputs": [
        {
          "internalType": "uint256",
          "name": "rid",
          "type": "uint256"
        }
      ],
      "name": "getTeantInfo",
      "outputs": [
        {
          "components": [
            {
              "internalType": "string",
              "name": "name",
              "type": "string"
            },
            {
              "internalType": "enum RentManagement.Gender",
              "name": "gender",
              "type": "uint8"
            },
            {
              "internalType": "uint256",
              "name": "phone",
              "type": "uint256"
            },
            {
              "internalType": "string",
              "name": "idCard",
              "type": "string"
            },
            {
              "internalType": "string",
              "name": "cardUrl",
              "type": "string"
            }
          ],
          "internalType": "struct RentManagement.TeantInfo",
          "name": "teantInfo",
          "type": "tuple"
        }
      ],
      "stateMutability": "view",
      "type": "function"
    },
    {
      "inputs": [
        {
          "internalType": "address",
          "name": "teant",
          "type": "address"
        }
      ],
      "name": "getYourRent",
      "outputs": [
        {
          "internalType": "uint256[]",
          "name": "",
          "type": "uint256[]"
        }
      ],
      "stateMutability": "view",
      "type": "function"
    },
    {
      "inputs": [
        {
          "internalType": "address",
          "name": "spender",
          "type": "address"
        },
        {
          "internalType": "uint256",
          "name": "addedValue",
          "type": "uint256"
        }
      ],
      "name": "increaseAllowance",
      "outputs": [
        {
          "internalType": "bool",
          "name": "",
          "type": "bool"
        }
      ],
      "stateMutability": "nonpayable",
      "type": "function"
    },
    {
      "inputs": [
        {
          "internalType": "uint256",
          "name": "",
          "type": "uint256"
        }
      ],
      "name": "isRent",
      "outputs": [
        {
          "internalType": "bool",
          "name": "",
          "type": "bool"
        }
      ],
      "stateMutability": "view",
      "type": "function"
    },
    {
      "inputs": [
        {
          "internalType": "uint256",
          "name": "itemId",
          "type": "uint256"
        },
        {
          "components": [
            {
              "internalType": "string",
              "name": "title",
              "type": "string"
            },
            {
              "internalType": "uint256",
              "name": "itemId",
              "type": "uint256"
            },
            {
              "internalType": "uint256",
              "name": "area",
              "type": "uint256"
            },
            {
              "internalType": "uint256",
              "name": "rental",
              "type": "uint256"
            },
            {
              "internalType": "uint256",
              "name": "deposit",
              "type": "uint256"
            },
            {
              "internalType": "uint256",
              "name": "electricity",
              "type": "uint256"
            },
            {
              "internalType": "uint256",
              "name": "hotwater",
              "type": "uint256"
            },
            {
              "internalType": "uint256",
              "name": "coldwater",
              "type": "uint256"
            },
            {
              "internalType": "uint256",
              "name": "validTime",
              "type": "uint256"
            },
            {
              "internalType": "uint256",
              "name": "paymentTime",
              "type": "uint256"
            },
            {
              "internalType": "string",
              "name": "roomUrl",
              "type": "string"
            }
          ],
          "internalType": "struct RentManagement.RoomRentInfo",
          "name": "roomRentInfo",
          "type": "tuple"
        }
      ],
      "name": "itemUpdate",
      "outputs": [],
      "stateMutability": "nonpayable",
      "type": "function"
    },
    {
      "inputs": [],
      "name": "name",
      "outputs": [
        {
          "internalType": "string",
          "name": "",
          "type": "string"
        }
      ],
      "stateMutability": "view",
      "type": "function"
    },
    {
      "inputs": [
        {
          "internalType": "uint256",
          "name": "itemId",
          "type": "uint256"
        },
        {
          "internalType": "uint256",
          "name": "coldwater",
          "type": "uint256"
        }
      ],
      "name": "payColdWaterFee",
      "outputs": [
        {
          "internalType": "bool",
          "name": "",
          "type": "bool"
        }
      ],
      "stateMutability": "nonpayable",
      "type": "function"
    },
    {
      "inputs": [
        {
          "internalType": "uint256",
          "name": "itemId",
          "type": "uint256"
        },
        {
          "internalType": "uint256",
          "name": "electricity",
          "type": "uint256"
        }
      ],
      "name": "payElectricity",
      "outputs": [
        {
          "internalType": "bool",
          "name": "",
          "type": "bool"
        }
      ],
      "stateMutability": "nonpayable",
      "type": "function"
    },
    {
      "inputs": [
        {
          "internalType": "uint256",
          "name": "itemId",
          "type": "uint256"
        },
        {
          "internalType": "uint256",
          "name": "hotwater",
          "type": "uint256"
        }
      ],
      "name": "payHotWaterFee",
      "outputs": [
        {
          "internalType": "bool",
          "name": "",
          "type": "bool"
        }
      ],
      "stateMutability": "nonpayable",
      "type": "function"
    },
    {
      "inputs": [
        {
          "internalType": "uint256",
          "name": "itemId",
          "type": "uint256"
        }
      ],
      "name": "payRent",
      "outputs": [
        {
          "internalType": "bool",
          "name": "paystatus",
          "type": "bool"
        }
      ],
      "stateMutability": "nonpayable",
      "type": "function"
    },
    {
      "inputs": [
        {
          "internalType": "string",
          "name": "name",
          "type": "string"
        },
        {
          "internalType": "enum RentManagement.Gender",
          "name": "gender",
          "type": "uint8"
        },
        {
          "internalType": "uint256",
          "name": "phone",
          "type": "uint256"
        },
        {
          "internalType": "string",
          "name": "idCard",
          "type": "string"
        },
        {
          "internalType": "string",
          "name": "tokenUrl",
          "type": "string"
        }
      ],
      "name": "registerLandlord",
      "outputs": [
        {
          "internalType": "uint256",
          "name": "landlordId",
          "type": "uint256"
        }
      ],
      "stateMutability": "nonpayable",
      "type": "function"
    },
    {
      "inputs": [
        {
          "internalType": "string",
          "name": "name",
          "type": "string"
        },
        {
          "internalType": "enum RentManagement.Gender",
          "name": "gender",
          "type": "uint8"
        },
        {
          "internalType": "uint256",
          "name": "phone",
          "type": "uint256"
        },
        {
          "internalType": "string",
          "name": "idCard",
          "type": "string"
        },
        {
          "internalType": "string",
          "name": "tokenUrl",
          "type": "string"
        }
      ],
      "name": "registerTenant",
      "outputs": [
        {
          "internalType": "uint256",
          "name": "tenantId",
          "type": "uint256"
        }
      ],
      "stateMutability": "nonpayable",
      "type": "function"
    },
    {
      "inputs": [
        {
          "internalType": "address",
          "name": "Blacktenant",
          "type": "address"
        }
      ],
      "name": "removeBlackList",
      "outputs": [
        {
          "internalType": "bool",
          "name": "",
          "type": "bool"
        }
      ],
      "stateMutability": "nonpayable",
      "type": "function"
    },
    {
      "inputs": [
        {
          "internalType": "uint256",
          "name": "itemId",
          "type": "uint256"
        }
      ],
      "name": "removeHouse",
      "outputs": [
        {
          "internalType": "bool",
          "name": "",
          "type": "bool"
        }
      ],
      "stateMutability": "nonpayable",
      "type": "function"
    },
    {
      "inputs": [
        {
          "internalType": "uint256",
          "name": "itemId",
          "type": "uint256"
        }
      ],
      "name": "rentHouse",
      "outputs": [
        {
          "internalType": "bool",
          "name": "",
          "type": "bool"
        }
      ],
      "stateMutability": "nonpayable",
      "type": "function"
    },
    {
      "inputs": [],
      "name": "symbol",
      "outputs": [
        {
          "internalType": "string",
          "name": "",
          "type": "string"
        }
      ],
      "stateMutability": "view",
      "type": "function"
    },
    {
      "inputs": [],
      "name": "totalSupply",
      "outputs": [
        {
          "internalType": "uint256",
          "name": "",
          "type": "uint256"
        }
      ],
      "stateMutability": "view",
      "type": "function"
    },
    {
      "inputs": [
        {
          "internalType": "address",
          "name": "to",
          "type": "address"
        },
        {
          "internalType": "uint256",
          "name": "amount",
          "type": "uint256"
        }
      ],
      "name": "transfer",
      "outputs": [
        {
          "internalType": "bool",
          "name": "",
          "type": "bool"
        }
      ],
      "stateMutability": "nonpayable",
      "type": "function"
    },
    {
      "inputs": [
        {
          "internalType": "address",
          "name": "from",
          "type": "address"
        },
        {
          "internalType": "address",
          "name": "to",
          "type": "address"
        },
        {
          "internalType": "uint256",
          "name": "amount",
          "type": "uint256"
        }
      ],
      "name": "transferFrom",
      "outputs": [
        {
          "internalType": "bool",
          "name": "",
          "type": "bool"
        }
      ],
      "stateMutability": "nonpayable",
      "type": "function"
    }
  ],
  "bytecode": "0x60a06040527f8fc6d003b71ad6778bff33b4a33feb541d84b1ccaf6b275f0b3c4a5d89f38c136000553480156200003557600080fd5b50604051620054a5380380620054a5833981016040819052620000589162000379565b6040805180820182526005815264486f75736560d81b602080830191909152825180840184526001808252600960fb1b8284015284518086018652600c81526b5061776e4d756c746953696760a01b9084015284518086018652908152603160f81b9083015283517f8b73c3c69bb8fe3d512ecc4cf759cc79239f7b179b0ffacaa9a75d522b39400f928101929092527f029b2ec07bcb978de2688fdfc5852551508ba7b2de97155f0f555720322b6fa3938201939093527fc89efdaa54c0f20c7adf612882df0950f5a951637e0307cdcb4c672f298b8bc6606082015246608082018190523060a083015265b6cef5999000939160c00160408051601f19818403018152919052805160209182012060805283516200017f9250600491850190620002b6565b50805162000195906005906020840190620002b6565b505050620001aa3382620001ee60201b60201c565b50600680546001600160a01b039485166001600160a01b03199182161790915560078054938516938216939093179092556008805491909316911617905562000427565b6001600160a01b038216620002495760405162461bcd60e51b815260206004820152601f60248201527f45524332303a206d696e7420746f20746865207a65726f206164647265737300604482015260640160405180910390fd5b80600360008282546200025d9190620003c3565b90915550506001600160a01b0382166000818152600160209081526040808320805486019055518481527fddf252ad1be2c89b69c2b068fc378daa952ba7f163c4a11628f55a4df523b3ef910160405180910390a35050565b828054620002c490620003ea565b90600052602060002090601f016020900481019282620002e8576000855562000333565b82601f106200030357805160ff191683800117855562000333565b8280016001018555821562000333579182015b828111156200033357825182559160200191906001019062000316565b506200034192915062000345565b5090565b5b8082111562000341576000815560010162000346565b80516001600160a01b03811681146200037457600080fd5b919050565b6000806000606084860312156200038f57600080fd5b6200039a846200035c565b9250620003aa602085016200035c565b9150620003ba604085016200035c565b90509250925092565b60008219821115620003e557634e487b7160e01b600052601160045260246000fd5b500190565b600181811c90821680620003ff57607f821691505b602082108114156200042157634e487b7160e01b600052602260045260246000fd5b50919050565b60805161506262000443600039600061038401526150626000f3fe608060405234801561001057600080fd5b50600436106102ad5760003560e01c8063a2bedf181161017b578063cfafa469116100d8578063e487408b1161008c578063f105986011610071578063f10598601461061b578063f785a64c1461062e578063fc1b1a181461064157600080fd5b8063e487408b146105ff578063e4997dc51461060857600080fd5b8063db7a752f116100bd578063db7a752f14610593578063dd62ed3e146105b3578063e3cdb26a146105ec57600080fd5b8063cfafa4691461056d578063d9e8843f1461058057600080fd5b8063b738faf11161012f578063c731230711610114578063c73123071461051d578063cc0e096f14610547578063cc9a4b041461055a57600080fd5b8063b738faf1146104f7578063bd8957d21461050a57600080fd5b8063a9059cbb11610160578063a9059cbb146104b1578063ac813d02146104c4578063b669d402146104d757600080fd5b8063a2bedf181461047e578063a457c2d71461049e57600080fd5b806336a9e57d11610229578063640e6483116101dd5780637bc80c39116101c25780637bc80c3914610450578063821068521461046357806395d89b411461047657600080fd5b8063640e64831461041457806370a082311461042757600080fd5b80634026efe41161020e5780634026efe4146103ce57806352d1e8a3146103e157806352f61b05146103f457600080fd5b806336a9e57d146103a657806339509351146103bb57600080fd5b806318160ddd1161028057806323b872dd1161026557806323b872dd1461035d578063313ce567146103705780633644e5151461037f57600080fd5b806318160ddd1461032b57806320d647221461033d57600080fd5b8063028d023f146102b257806306fdde03146102d0578063095ea7b3146102e557806312b9cb4714610308575b600080fd5b6102ba610654565b6040516102c791906147d1565b60405180910390f35b6102d8610871565b6040516102c79190614833565b6102f86102f336600461485b565b610903565b60405190151581526020016102c7565b6102f8610316366004614887565b60156020526000908152604090205460ff1681565b6003545b6040519081526020016102c7565b61035061034b366004614887565b61091b565b6040516102c7919061493b565b6102f861036b36600461494e565b610b60565b604051601281526020016102c7565b61032f7f000000000000000000000000000000000000000000000000000000000000000081565b6103b96103b4366004614887565b610b84565b005b6102f86103c936600461485b565b610d81565b6102f86103dc36600461498f565b610dc0565b61032f6103ef36600461498f565b6110fa565b610407610402366004614887565b611118565b6040516102c791906149b1565b610350610422366004614887565b6112e7565b61032f610435366004614a23565b6001600160a01b031660009081526001602052604090205490565b6102f861045e366004614887565b611342565b61032f610471366004614b0d565b6116d3565b6102d86118f8565b61049161048c366004614a23565b611907565b6040516102c79190614bb8565b6102f86104ac36600461485b565b6119cb565b6102f86104bf36600461485b565b611a75565b6102f86104d236600461498f565b611a83565b6104ea6104e5366004614887565b611d67565b6040516102c79190614bfc565b6103b9610505366004614887565b611f46565b610491610518366004614a23565b611f53565b61053061052b366004614887565b612013565b6040516102c79b9a99989796959493929190614c0f565b61032f61055536600461498f565b612175565b6102f8610568366004614887565b612181565b6102f861057b366004614887565b6125cd565b6102f861058e366004614887565b6128ed565b6105a66105a1366004614887565b612cd4565b6040516102c79190614c82565b61032f6105c1366004614d26565b6001600160a01b03918216600090815260026020908152604080832093909416825291909152205490565b6102f86105fa366004614e31565b612e46565b61032f60005481565b6102f8610616366004614a23565b6130b9565b6103b9610629366004614e66565b613185565b6102f861063c36600461498f565b61338e565b61032f61064f366004614b0d565b613672565b6060601a805480602002602001604051908101604052809291908181526020016000905b8282101561086857838290600052602060002090600f0201604051806101e00160405290816000820180546106ac90614ead565b80601f01602080910402602001604051908101604052809291908181526020018280546106d890614ead565b80156107255780601f106106fa57610100808354040283529160200191610725565b820191906000526020600020905b81548152906001019060200180831161070857829003601f168201915b5050509183525050600182015460208201526002820154604082015260038201546001600160a01b0390811660608301526004830154166080820152600582015460a0820152600682015460c0820152600782015460e082015260088201546101008201526009820154610120820152600a820154610140820152600b820154610160820152600c820154610180820152600d8201546101a0820152600e820180546101c0909201916107d790614ead565b80601f016020809104026020016040519081016040528092919081815260200182805461080390614ead565b80156108505780601f1061082557610100808354040283529160200191610850565b820191906000526020600020905b81548152906001019060200180831161083357829003601f168201915b50505050508152505081526020019060010190610678565b50505050905090565b60606004805461088090614ead565b80601f01602080910402602001604051908101604052809291908181526020018280546108ac90614ead565b80156108f95780601f106108ce576101008083540402835291602001916108f9565b820191906000526020600020905b8154815290600101906020018083116108dc57829003601f168201915b5050505050905090565b600033610911818585613833565b5060019392505050565b61094e6040805160a081019091526060815260208101600081526020016000815260200160608152602001606081525090565b60008281526016602052604090819020815160a0810190925280548290829061097690614ead565b80601f01602080910402602001604051908101604052809291908181526020018280546109a290614ead565b80156109ef5780601f106109c4576101008083540402835291602001916109ef565b820191906000526020600020905b8154815290600101906020018083116109d257829003601f168201915b505050918352505060018281015460209092019160ff1690811115610a1657610a166148a0565b6001811115610a2757610a276148a0565b815260200160028201548152602001600382018054610a4590614ead565b80601f0160208091040260200160405190810160405280929190818152602001828054610a7190614ead565b8015610abe5780601f10610a9357610100808354040283529160200191610abe565b820191906000526020600020905b815481529060010190602001808311610aa157829003601f168201915b50505050508152602001600482018054610ad790614ead565b80601f0160208091040260200160405190810160405280929190818152602001828054610b0390614ead565b8015610b505780601f10610b2557610100808354040283529160200191610b50565b820191906000526020600020905b815481529060010190602001808311610b3357829003601f168201915b5050505050815250509050919050565b600033610b6e85828561398b565b610b79858585613a1d565b506001949350505050565b6006546040516370a0823160e01b81523360048201526000916001600160a01b0316906370a082319060240160206040518083038186803b158015610bc857600080fd5b505afa158015610bdc573d6000803e3d6000fd5b505050506040513d601f19601f82011682018060405250810190610c009190614ee8565b11610c415760405162461bcd60e51b815260206004820152600c60248201526b1b9bdd0813185b991b1bdc9960a21b60448201526064015b60405180910390fd5b6008546040516331a9108f60e11b815260048101839052829133916001600160a01b0390911690636352211e9060240160206040518083038186803b158015610c8957600080fd5b505afa158015610c9d573d6000803e3d6000fd5b505050506040513d601f19601f82011682018060405250810190610cc19190614f01565b6001600160a01b031614610d065760405162461bcd60e51b815260206004820152600c60248201526b1b9bdd0813185b991b1bdc9960a21b6044820152606401610c38565b6008546040517f7b8577c3000000000000000000000000000000000000000000000000000000008152600481018490526001600160a01b0390911690637b8577c390602401600060405180830381600087803b158015610d6557600080fd5b505af1158015610d79573d6000803e3d6000fd5b505050505050565b3360008181526002602090815260408083206001600160a01b03871684529091528120549091906109119082908690610dbb908790614f34565b613833565b60008281526019602052604080822081516101e0810190925280548392919082908290610dec90614ead565b80601f0160208091040260200160405190810160405280929190818152602001828054610e1890614ead565b8015610e655780601f10610e3a57610100808354040283529160200191610e65565b820191906000526020600020905b815481529060010190602001808311610e4857829003601f168201915b5050509183525050600182015460208201526002820154604082015260038201546001600160a01b0390811660608301526004830154166080820152600582015460a0820152600682015460c0820152600782015460e082015260088201546101008201526009820154610120820152600a820154610140820152600b820154610160820152600c820154610180820152600d8201546101a0820152600e820180546101c090920191610f1790614ead565b80601f0160208091040260200160405190810160405280929190818152602001828054610f4390614ead565b8015610f905780601f10610f6557610100808354040283529160200191610f90565b820191906000526020600020905b815481529060010190602001808311610f7357829003601f168201915b5050509190925250505060808101519091506001600160a01b0316610fe95760405162461bcd60e51b815260206004820152600f60248201526e1c9bdbdb481b9bdd081c995b9d1959608a1b6044820152606401610c38565b6000848152601c602090815260408083208151815460a0948102820185019093526080810183815290939192849284919084018282801561106957602002820191906000526020600020906000905b825461010083900a900460ff1615158152602060019283018181049485019490930390920291018084116110385790505b505050505081526020016001820154815260200160028201548152602001600382015481525050905083816060018181516110a49190614f34565b9052506000858152601c602090815260409091208251805184936110cc928492910190614468565b5060208201518160010155604082015181600201556060820151816003015590505060019250505092915050565b6000816111078442614f4c565b6111119190614f63565b9392505050565b6111436040518060800160405280606081526020016000815260200160008152602001600081525090565b6006546040516331a9108f60e11b81526004810184905233916001600160a01b031690636352211e9060240160206040518083038186803b15801561118757600080fd5b505afa15801561119b573d6000803e3d6000fd5b505050506040513d601f19601f820116820180604052508101906111bf9190614f01565b6001600160a01b031614806111ed57506000828152601b60205260409020600201546001600160a01b031633145b6112395760405162461bcd60e51b815260206004820152601660248201527f6e6f742074656e616e74206f72206c616e646c6f7264000000000000000000006044820152606401610c38565b6000828152601c60209081526040918290208251815460a0938102820184019094526080810184815290939192849284918401828280156112b957602002820191906000526020600020906000905b825461010083900a900460ff1615158152602060019283018181049485019490930390920291018084116112885790505b5050505050815260200160018201548152602001600282015481526020016003820154815250509050919050565b61131a6040805160a081019091526060815260208101600081526020016000815260200160608152602001606081525090565b60008281526017602052604090819020815160a0810190925280548290829061097690614ead565b60008181526015602052604081205460ff16156113a15760405162461bcd60e51b815260206004820152600c60248201527f726f6f6d2069732072656e7400000000000000000000000000000000000000006044820152606401610c38565b60008281526019602052604080822081516101e081019092528054829082906113c990614ead565b80601f01602080910402602001604051908101604052809291908181526020018280546113f590614ead565b80156114425780601f1061141757610100808354040283529160200191611442565b820191906000526020600020905b81548152906001019060200180831161142557829003601f168201915b5050509183525050600182015460208201526002820154604082015260038201546001600160a01b0390811660608301526004830154166080820152600582015460a0820152600682015460c0820152600782015460e082015260088201546101008201526009820154610120820152600a820154610140820152600b820154610160820152600c820154610180820152600d8201546101a0820152600e820180546101c0909201916114f490614ead565b80601f016020809104026020016040519081016040528092919081815260200182805461152090614ead565b801561156d5780601f106115425761010080835404028352916020019161156d565b820191906000526020600020905b81548152906001019060200180831161155057829003601f168201915b5050505050815250509050336001600160a01b031681606001516001600160a01b0316146115dd5760405162461bcd60e51b815260206004820152600c60248201527f6e6f74206c616e646c6f726400000000000000000000000000000000000000006044820152606401610c38565b33600090815260208052604090206115f484613c11565b5060005b81548110156116c8578482828154811061161457611614614f85565b906000526020600020015414156116b657815461163390600190614f4c565b811015611684578154829061164a90600190614f4c565b8154811061165a5761165a614f85565b906000526020600020015482828154811061167757611677614f85565b6000918252602090912001555b8180548061169457611694614f9b565b6001900381819060005260206000200160009055905560019350505050919050565b806116c081614fb1565b9150506115f8565b506000949350505050565b6000336117225760405162461bcd60e51b815260206004820152600f60248201527f61646472657373206973207a65726f00000000000000000000000000000000006044820152606401610c38565b6007546040516370a0823160e01b81523360048201526001600160a01b03909116906370a082319060240160206040518083038186803b15801561176557600080fd5b505afa158015611779573d6000803e3d6000fd5b505050506040513d601f19601f8201168201806040525081019061179d9190614ee8565b156117ea5760405162461bcd60e51b815260206004820152600960248201527f69732054656e616e7400000000000000000000000000000000000000000000006044820152606401610c38565b60075460405163cf37834360e01b81526001600160a01b039091169063cf3783439061181c9033908690600401614fcc565b602060405180830381600087803b15801561183657600080fd5b505af115801561184a573d6000803e3d6000fd5b505050506040513d601f19601f8201168201806040525081019061186e9190614ee8565b6000818152601760209081526040909120885192935091611894918391908a019061450d565b5060018082018054889260ff199091169083818111156118b6576118b66148a0565b02179055506002810185905583516118d7906003830190602087019061450d565b5082516118ed906004830190602086019061450d565b505095945050505050565b60606005805461088090614ead565b6060336001600160a01b038316146119615760405162461bcd60e51b815260206004820152601960248201527f75206a7573742063616e20636865636b20796f757273656b66000000000000006044820152606401610c38565b6001600160a01b0382166000908152601f6020908152604091829020805483518184028101840190945280845290918301828280156119bf57602002820191906000526020600020905b8154815260200190600101908083116119ab575b50505050509050919050565b3360008181526002602090815260408083206001600160a01b038716845290915281205490919083811015611a685760405162461bcd60e51b815260206004820152602560248201527f45524332303a2064656372656173656420616c6c6f77616e63652062656c6f7760448201527f207a65726f0000000000000000000000000000000000000000000000000000006064820152608401610c38565b610b798286868403613833565b600033610911818585613a1d565b60008281526019602052604080822081516101e0810190925280548392919082908290611aaf90614ead565b80601f0160208091040260200160405190810160405280929190818152602001828054611adb90614ead565b8015611b285780601f10611afd57610100808354040283529160200191611b28565b820191906000526020600020905b815481529060010190602001808311611b0b57829003601f168201915b5050509183525050600182015460208201526002820154604082015260038201546001600160a01b0390811660608301526004830154166080820152600582015460a0820152600682015460c0820152600782015460e082015260088201546101008201526009820154610120820152600a820154610140820152600b820154610160820152600c820154610180820152600d8201546101a0820152600e820180546101c090920191611bda90614ead565b80601f0160208091040260200160405190810160405280929190818152602001828054611c0690614ead565b8015611c535780601f10611c2857610100808354040283529160200191611c53565b820191906000526020600020905b815481529060010190602001808311611c3657829003601f168201915b5050509190925250505060808101519091506001600160a01b0316611cac5760405162461bcd60e51b815260206004820152600f60248201526e1c9bdbdb481b9bdd081c995b9d1959608a1b6044820152606401610c38565b6000848152601c602090815260408083208151815460a09481028201850190935260808101838152909391928492849190840182828015611d2c57602002820191906000526020600020906000905b825461010083900a900460ff161515815260206001928301818104948501949093039092029101808411611cfb5790505b505050505081526020016001820154815260200160028201548152602001600382015481525050905083816040018181516110a49190614f34565b611df2604051806101e0016040528060608152602001600081526020016000815260200160006001600160a01b0316815260200160006001600160a01b03168152602001600081526020016000815260200160008152602001600081526020016000815260200160008152602001600081526020016000815260200160008152602001606081525090565b6000828152601960205260409081902081516101e08101909252805482908290611e1b90614ead565b80601f0160208091040260200160405190810160405280929190818152602001828054611e4790614ead565b8015611e945780601f10611e6957610100808354040283529160200191611e94565b820191906000526020600020905b815481529060010190602001808311611e7757829003601f168201915b5050509183525050600182015460208201526002820154604082015260038201546001600160a01b0390811660608301526004830154166080820152600582015460a0820152600682015460c0820152600782015460e082015260088201546101008201526009820154610120820152600a820154610140820152600b820154610160820152600c820154610180820152600d8201546101a0820152600e820180546101c090920191610ad790614ead565b611f503382613e71565b50565b6060336001600160a01b03831614611fad5760405162461bcd60e51b815260206004820152601960248201527f75206a7573742063616e20636865636b20796f757273656b66000000000000006044820152606401610c38565b6001600160a01b03821660009081526020808052604091829020805483518184028101840190945280845290918301828280156119bf57602002820191906000526020600020908154815260200190600101908083116119ab5750505050509050919050565b60186020526000908152604090208054819061202e90614ead565b80601f016020809104026020016040519081016040528092919081815260200182805461205a90614ead565b80156120a75780601f1061207c576101008083540402835291602001916120a7565b820191906000526020600020905b81548152906001019060200180831161208a57829003601f168201915b50505050509080600101549080600201549080600301549080600401549080600501549080600601549080600701549080600801549080600901549080600a0180546120f290614ead565b80601f016020809104026020016040519081016040528092919081815260200182805461211e90614ead565b801561216b5780601f106121405761010080835404028352916020019161216b565b820191906000526020600020905b81548152906001019060200180831161214e57829003601f168201915b505050505090508b565b60006111118284614f63565b6007546040516370a0823160e01b815233600482015260009182916001600160a01b03909116906370a082319060240160206040518083038186803b1580156121c957600080fd5b505afa1580156121dd573d6000803e3d6000fd5b505050506040513d601f19601f820116820180604052508101906122019190614ee8565b1161224e5760405162461bcd60e51b815260206004820152600a60248201527f6e6f742054656e616e74000000000000000000000000000000000000000000006044820152606401610c38565b336000908152601d602052604090205460ff16156122ae5760405162461bcd60e51b815260206004820152600f60248201527f697320626c61636b2074656e616e7400000000000000000000000000000000006044820152606401610c38565b600082815260196020526040902060048101546001600160a01b0316156123175760405162461bcd60e51b815260206004820152600e60248201527f726f6f6d2069732072656e7465640000000000000000000000000000000000006044820152606401610c38565b60038101546001600160a01b03163314156123745760405162461bcd60e51b815260206004820152600e60248201527f7520617265206c616e646c6f72640000000000000000000000000000000000006044820152606401610c38565b60008160060154826005015461238a9190614f34565b60038301549091506123a5906001600160a01b031682611a75565b506004820180546001600160a01b0319163317905542600a8301819055600b8301546123d091614f34565b600d83015560008481526019602052604090208254839190819083906123f590614ead565b612400929190614581565b50600182810154908201556002808301549082015560038083015490820180546001600160a01b039283166001600160a01b03199182161790915560048085015490840180549190931691161790556005808301549082015560068083015490820155600780830154908201556008808301549082015560098083015490820155600a8083015490820155600b8083015490820155600c8083015490820155600d8083015490820155600e8083018054918301916124bd90614ead565b6124c8929190614581565b5050506000848152601c6020908152604080832060159092528220805460ff19166001179055600b840154600c8501549192916125059190612175565b90508067ffffffffffffffff81111561252057612520614a40565b604051908082528060200260200182016040528015612549578160200160208202803683370190505b50805161255d918491602090910190614468565b5060018260000160008154811061257657612576614f85565b6000918252602080832081830401805460ff601f9485166101000a90810219909116951515029490941790935533825282526040812080546001818101835591835292909120909101969096555093949350505050565b60008181526019602052604080822081516101e08101909252805483929190829082906125f990614ead565b80601f016020809104026020016040519081016040528092919081815260200182805461262590614ead565b80156126725780601f1061264757610100808354040283529160200191612672565b820191906000526020600020905b81548152906001019060200180831161265557829003601f168201915b5050509183525050600182015460208201526002820154604082015260038201546001600160a01b0390811660608301526004830154166080820152600582015460a0820152600682015460c0820152600782015460e082015260088201546101008201526009820154610120820152600a820154610140820152600b820154610160820152600c820154610180820152600d8201546101a0820152600e820180546101c09092019161272490614ead565b80601f016020809104026020016040519081016040528092919081815260200182805461275090614ead565b801561279d5780601f106127725761010080835404028352916020019161279d565b820191906000526020600020905b81548152906001019060200180831161278057829003601f168201915b505050505081525050905042816101a00151116127fe5760405162461bcd60e51b8152600401610c389060208082526004908201527f74696d6500000000000000000000000000000000000000000000000000000000604082015260600190565b60006128148261014001518361018001516110fa565b6000858152601c602090815260408083208151815460a09481028201850190935260808101838152959650939490928492849184018282801561289657602002820191906000526020600020906000905b825461010083900a900460ff1615158152602060019283018181049485019490930390920291018084116128655790505b50505050508152602001600182015481526020016002820154815260200160038201548152505090506000816000015190508083815181106128da576128da614f85565b6020026020010151945050505050919050565b60008181526019602052604080822081516101e081019092528054839291908290829061291990614ead565b80601f016020809104026020016040519081016040528092919081815260200182805461294590614ead565b80156129925780601f1061296757610100808354040283529160200191612992565b820191906000526020600020905b81548152906001019060200180831161297557829003601f168201915b5050509183525050600182015460208201526002820154604082015260038201546001600160a01b0390811660608301526004830154166080820152600582015460a0820152600682015460c0820152600782015460e082015260088201546101008201526009820154610120820152600a820154610140820152600b820154610160820152600c820154610180820152600d8201546101a0820152600e820180546101c090920191612a4490614ead565b80601f0160208091040260200160405190810160405280929190818152602001828054612a7090614ead565b8015612abd5780601f10612a9257610100808354040283529160200191612abd565b820191906000526020600020905b815481529060010190602001808311612aa057829003601f168201915b5050509190925250505060808101519091506001600160a01b0316612b165760405162461bcd60e51b815260206004820152600f60248201526e1c9bdbdb481b9bdd081c995b9d1959608a1b6044820152606401610c38565b6000838152601c60205260408120610160830151610180840151919291612b3d9190612175565b905081612b4b600183614f4c565b81548110612b5b57612b5b614f85565b90600052602060002090602091828204019190069054906101000a900460ff1615612bc85760405162461bcd60e51b815260206004820152601660248201527f72656e74616c207761732070617920696e2066756c6c000000000000000000006044820152606401610c38565b612bda83606001518460a00151611a75565b5060005b8254811015612ccb57826000018181548110612bfc57612bfc614f85565b90600052602060002090602091828204019190069054906101000a900460ff16612cb9576001836000018281548110612c3757612c37614f85565b90600052602060002090602091828204019190066101000a81548160ff02191690831515021790555082601c60008881526020019081526020016000206000820181600001908054612c8a9291906145fc565b506001820154816001015560028201548160020155600382015481600301559050506001945050505050919050565b80612cc381614fb1565b915050612bde565b50505050919050565b612d3160405180610160016040528060608152602001600081526020016000815260200160008152602001600081526020016000815260200160008152602001600081526020016000815260200160008152602001606081525090565b6000828152601860205260409081902081516101608101909252805482908290612d5a90614ead565b80601f0160208091040260200160405190810160405280929190818152602001828054612d8690614ead565b8015612dd35780601f10612da857610100808354040283529160200191612dd3565b820191906000526020600020905b815481529060010190602001808311612db657829003601f168201915b50505050508152602001600182015481526020016002820154815260200160038201548152602001600482015481526020016005820154815260200160068201548152602001600782015481526020016008820154815260200160098201548152602001600a82018054610ad790614ead565b6006546040516370a0823160e01b815233600482015260009182916001600160a01b03909116906370a082319060240160206040518083038186803b158015612e8e57600080fd5b505afa158015612ea2573d6000803e3d6000fd5b505050506040513d601f19601f82011682018060405250810190612ec69190614ee8565b11612f025760405162461bcd60e51b815260206004820152600c60248201526b1b9bdd0813185b991b1bdc9960a21b6044820152606401610c38565b6008546040517fd9c696470000000000000000000000000000000000000000000000000000000081523360048201526000916001600160a01b03169063d9c6964790602401602060405180830381600087803b158015612f6157600080fd5b505af1158015612f75573d6000803e3d6000fd5b505050506040513d601f19601f82011682018060405250810190612f999190614ee8565b60008181526018602090815260409091208551805193945086939192612fc49284929091019061450d565b50602082810151600183015560408301516002830155606083015160038301556080830151600483015560a0830151600583015560c0830151600683015560e0830151600783015561010083015160088301556101208301516009830155610140830151805161303a92600a850192019061450d565b5090505061307d836000015182856040015133876060015188608001518960a001518a60c001518b60e001518c61010001518d61012001518e6101400151613f33565b6000818152601560209081526040808320805460ff19169055338352818052822080546001818101835591845291909220019190915592915050565b6001600160a01b0381166000908152601d602052604081205460ff166131215760405162461bcd60e51b815260206004820152601060248201527f6e6f7420626c61636b2074656e616e74000000000000000000000000000000006044820152606401610c38565b61312a8261410f565b506001600160a01b03166000908152601d60208181526040808420805460ff19168155601e835290842080546001600160a01b0319908116825560018201805490911690556002810185905560030193909355525460ff1690565b6006546040516370a0823160e01b81523360048201526000916001600160a01b0316906370a082319060240160206040518083038186803b1580156131c957600080fd5b505afa1580156131dd573d6000803e3d6000fd5b505050506040513d601f19601f820116820180604052508101906132019190614ee8565b1161323d5760405162461bcd60e51b815260206004820152600c60248201526b1b9bdd0813185b991b1bdc9960a21b6044820152606401610c38565b6008546040516331a9108f60e11b815260048101849052839133916001600160a01b0390911690636352211e9060240160206040518083038186803b15801561328557600080fd5b505afa158015613299573d6000803e3d6000fd5b505050506040513d601f19601f820116820180604052508101906132bd9190614f01565b6001600160a01b0316146133025760405162461bcd60e51b815260206004820152600c60248201526b1b9bdd0813185b991b1bdc9960a21b6044820152606401610c38565b60008381526018602090815260409091208351805191926133289284929091019061450d565b506020830151600182015560408301516002820155606083015160038201556080830151600482015560a0830151600582015560c0830151600682015560e083015160078201556101208301516009820155610100909201516008909201919091555050565b60008281526019602052604080822081516101e08101909252805483929190829082906133ba90614ead565b80601f01602080910402602001604051908101604052809291908181526020018280546133e690614ead565b80156134335780601f1061340857610100808354040283529160200191613433565b820191906000526020600020905b81548152906001019060200180831161341657829003601f168201915b5050509183525050600182015460208201526002820154604082015260038201546001600160a01b0390811660608301526004830154166080820152600582015460a0820152600682015460c0820152600782015460e082015260088201546101008201526009820154610120820152600a820154610140820152600b820154610160820152600c820154610180820152600d8201546101a0820152600e820180546101c0909201916134e590614ead565b80601f016020809104026020016040519081016040528092919081815260200182805461351190614ead565b801561355e5780601f106135335761010080835404028352916020019161355e565b820191906000526020600020905b81548152906001019060200180831161354157829003601f168201915b5050509190925250505060808101519091506001600160a01b03166135b75760405162461bcd60e51b815260206004820152600f60248201526e1c9bdbdb481b9bdd081c995b9d1959608a1b6044820152606401610c38565b6000848152601c602090815260408083208151815460a0948102820185019093526080810183815290939192849284919084018282801561363757602002820191906000526020600020906000905b825461010083900a900460ff1615158152602060019283018181049485019490930390920291018084116136065790505b505050505081526020016001820154815260200160028201548152602001600382015481525050905083816020018181516110a49190614f34565b6000336136c15760405162461bcd60e51b815260206004820152600f60248201527f61646472657373206973207a65726f00000000000000000000000000000000006044820152606401610c38565b6006546040516370a0823160e01b81523360048201526001600160a01b03909116906370a082319060240160206040518083038186803b15801561370457600080fd5b505afa158015613718573d6000803e3d6000fd5b505050506040513d601f19601f8201168201806040525081019061373c9190614ee8565b156137895760405162461bcd60e51b815260206004820152600b60248201527f6973204c616e646c6f72640000000000000000000000000000000000000000006044820152606401610c38565b60065460405163cf37834360e01b81526001600160a01b039091169063cf378343906137bb9033908690600401614fcc565b602060405180830381600087803b1580156137d557600080fd5b505af11580156137e9573d6000803e3d6000fd5b505050506040513d601f19601f8201168201806040525081019061380d9190614ee8565b6000818152601660209081526040909120885192935091611894918391908a019061450d565b6001600160a01b0383166138ae5760405162461bcd60e51b8152602060048201526024808201527f45524332303a20617070726f76652066726f6d20746865207a65726f2061646460448201527f72657373000000000000000000000000000000000000000000000000000000006064820152608401610c38565b6001600160a01b03821661392a5760405162461bcd60e51b815260206004820152602260248201527f45524332303a20617070726f766520746f20746865207a65726f20616464726560448201527f73730000000000000000000000000000000000000000000000000000000000006064820152608401610c38565b6001600160a01b0383811660008181526002602090815260408083209487168084529482529182902085905590518481527f8c5be1e5ebec7d5bd14f71427d1e84f3dd0314c0f7b2291e5b200ac8c7c3b925910160405180910390a3505050565b6001600160a01b038381166000908152600260209081526040808320938616835292905220546000198114613a175781811015613a0a5760405162461bcd60e51b815260206004820152601d60248201527f45524332303a20696e73756666696369656e7420616c6c6f77616e63650000006044820152606401610c38565b613a178484848403613833565b50505050565b6001600160a01b038316613a995760405162461bcd60e51b815260206004820152602560248201527f45524332303a207472616e736665722066726f6d20746865207a65726f20616460448201527f64726573730000000000000000000000000000000000000000000000000000006064820152608401610c38565b6001600160a01b038216613b155760405162461bcd60e51b815260206004820152602360248201527f45524332303a207472616e7366657220746f20746865207a65726f206164647260448201527f65737300000000000000000000000000000000000000000000000000000000006064820152608401610c38565b6001600160a01b03831660009081526001602052604090205481811015613ba45760405162461bcd60e51b815260206004820152602660248201527f45524332303a207472616e7366657220616d6f756e742065786365656473206260448201527f616c616e636500000000000000000000000000000000000000000000000000006064820152608401610c38565b6001600160a01b0380851660008181526001602052604080822086860390559286168082529083902080548601905591517fddf252ad1be2c89b69c2b068fc378daa952ba7f163c4a11628f55a4df523b3ef90613c049086815260200190565b60405180910390a3613a17565b6000805b601a54811015613e685782601a8281548110613c3357613c33614f85565b90600052602060002090600f0201600101541415613e5657601a54613c5a90600190614f4c565b811015613d9b57601a8054613c7190600190614f4c565b81548110613c8157613c81614f85565b90600052602060002090600f0201601a8281548110613ca257613ca2614f85565b90600052602060002090600f02016000820181600001908054613cc490614ead565b613ccf929190614581565b50600182810154908201556002808301549082015560038083015490820180546001600160a01b039283166001600160a01b03199182161790915560048085015490840180549190931691161790556005808301549082015560068083015490820155600780830154908201556008808301549082015560098083015490820155600a8083015490820155600b8083015490820155600c8083015490820155600d8083015490820155600e808301805491830191613d8c90614ead565b613d97929190614581565b5050505b601a805480613dac57613dac614f9b565b60008281526020812060001990920191600f83020190613dcc8282614649565b600060018301819055600283018190556003830180546001600160a01b031990811690915560048401805490911690556005830181905560068301819055600783018190556008830181905560098301819055600a8301819055600b8301819055600c8301819055600d8301819055613e4990600e840190614649565b5050905550600192915050565b80613e6081614fb1565b915050613c15565b50600092915050565b6001600160a01b038216613ec75760405162461bcd60e51b815260206004820152601f60248201527f45524332303a206d696e7420746f20746865207a65726f2061646472657373006044820152606401610c38565b8060036000828254613ed99190614f34565b90915550506001600160a01b0382166000818152600160209081526040808320805486019055518481527fddf252ad1be2c89b69c2b068fc378daa952ba7f163c4a11628f55a4df523b3ef910160405180910390a35b5050565b6000601960008d815260200190815260200160002090508c816000019080519060200190613f6292919061450d565b50600181018c9055600281018b90556003810180546001600160a01b038c166001600160a01b031991821617909155600582018a905560068201899055600782018890556008820187905560098201869055600b8201859055600c820184905560048201805490911690558151613fe290600e830190602085019061450d565b50601a805460018101825560009190915281548291600f027f057c384a7d1c54f3a1b2e5e67b2617b8224fdfd1ea7234eea573a6ff665ff63e01908190839061402a90614ead565b614035929190614581565b50600182810154908201556002808301549082015560038083015490820180546001600160a01b039283166001600160a01b03199182161790915560048085015490840180549190931691161790556005808301549082015560068083015490820155600780830154908201556008808301549082015560098083015490820155600a8083015490820155600b8083015490820155600c8083015490820155600d8083015490820155600e8083018054918301916140f290614ead565b6140fd929190614581565b50505050505050505050505050505050565b6001600160a01b038082166000908152601e60209081526040918290208251608081018452815485168082526001830154861693820193909352600282015493810184905260039091015460608201526009549093613f2f9391169190614176565b505050565b604080516001600160a01b03848116602483015260448083018590528351808403909101815260649092018352602080830180517bffffffffffffffffffffffffffffffffffffffffffffffffffffffff167fa9059cbb0000000000000000000000000000000000000000000000000000000017905283518085019094528084527f5361666545524332303a206c6f772d6c6576656c2063616c6c206661696c656490840152614171928692916000916142349185169084906142c4565b80519091501561417157808060200190518101906142529190614fee565b6141715760405162461bcd60e51b815260206004820152602a60248201527f5361666545524332303a204552433230206f7065726174696f6e20646964206e60448201527f6f742073756363656564000000000000000000000000000000000000000000006064820152608401610c38565b60606142d384846000856142db565b949350505050565b6060824710156143535760405162461bcd60e51b815260206004820152602660248201527f416464726573733a20696e73756666696369656e742062616c616e636520666f60448201527f722063616c6c00000000000000000000000000000000000000000000000000006064820152608401610c38565b600080866001600160a01b0316858760405161436f9190615010565b60006040518083038185875af1925050503d80600081146143ac576040519150601f19603f3d011682016040523d82523d6000602084013e6143b1565b606091505b50915091506143c2878383876143cd565b979650505050505050565b60608315614439578251614432576001600160a01b0385163b6144325760405162461bcd60e51b815260206004820152601d60248201527f416464726573733a2063616c6c20746f206e6f6e2d636f6e74726163740000006044820152606401610c38565b50816142d3565b6142d3838381511561444e5781518083602001fd5b8060405162461bcd60e51b8152600401610c389190614833565b82805482825590600052602060002090601f016020900481019282156144fd5791602002820160005b838211156144ce57835183826101000a81548160ff0219169083151502179055509260200192600101602081600001049283019260010302614491565b80156144fb5782816101000a81549060ff02191690556001016020816000010492830192600103026144ce565b505b5061450992915061467f565b5090565b82805461451990614ead565b90600052602060002090601f01602090048101928261453b57600085556144fd565b82601f1061455457805160ff19168380011785556144fd565b828001600101855582156144fd579182015b828111156144fd578251825591602001919060010190614566565b82805461458d90614ead565b90600052602060002090601f0160209004810192826145af57600085556144fd565b82601f106145c057805485556144fd565b828001600101855582156144fd57600052602060002091601f016020900482015b828111156144fd5782548255916001019190600101906145e1565b82805482825590600052602060002090601f016020900481019282156144fd57600052602060002091601f01602090048201828111156144fd5782548255916001019190600101906145e1565b50805461465590614ead565b6000825580601f10614665575050565b601f016020900490600052602060002090810190611f5091905b5b808211156145095760008155600101614680565b60005b838110156146af578181015183820152602001614697565b83811115613a175750506000910152565b600081518084526146d8816020860160208601614694565b601f01601f19169290920160200192915050565b60006101e08251818552614702828601826146c0565b9150506020830151602085015260408301516040850152606083015161473360608601826001600160a01b03169052565b50608083015161474e60808601826001600160a01b03169052565b5060a0838101519085015260c0808401519085015260e08084015190850152610100808401519085015261012080840151908501526101408084015190850152610160808401519085015261018080840151908501526101a080840151908501526101c080840151858303828701526147c783826146c0565b9695505050505050565b6000602080830181845280855180835260408601915060408160051b870101925083870160005b8281101561482657603f198886030184526148148583516146ec565b945092850192908501906001016147f8565b5092979650505050505050565b60208152600061111160208301846146c0565b6001600160a01b0381168114611f5057600080fd5b6000806040838503121561486e57600080fd5b823561487981614846565b946020939093013593505050565b60006020828403121561489957600080fd5b5035919050565b634e487b7160e01b600052602160045260246000fd5b6000815160a084526148cb60a08501826146c0565b90506020830151600281106148f057634e487b7160e01b600052602160045260246000fd5b80602086015250604083015160408501526060830151848203606086015261491882826146c0565b9150506080830151848203608086015261493282826146c0565b95945050505050565b60208152600061111160208301846148b6565b60008060006060848603121561496357600080fd5b833561496e81614846565b9250602084013561497e81614846565b929592945050506040919091013590565b600080604083850312156149a257600080fd5b50508035926020909101359150565b60208082528251608083830152805160a0840181905260009291820190839060c08601905b808310156149f8578351151582529284019260019290920191908401906149d6565b5083870151604087015260408701516060870152606087015160808701528094505050505092915050565b600060208284031215614a3557600080fd5b813561111181614846565b634e487b7160e01b600052604160045260246000fd5b604051610160810167ffffffffffffffff81118282101715614a7a57614a7a614a40565b60405290565b600082601f830112614a9157600080fd5b813567ffffffffffffffff80821115614aac57614aac614a40565b604051601f8301601f19908116603f01168101908282118183101715614ad457614ad4614a40565b81604052838152866020858801011115614aed57600080fd5b836020870160208301376000602085830101528094505050505092915050565b600080600080600060a08688031215614b2557600080fd5b853567ffffffffffffffff80821115614b3d57600080fd5b614b4989838a01614a80565b96506020880135915060028210614b5f57600080fd5b9094506040870135935060608701359080821115614b7c57600080fd5b614b8889838a01614a80565b93506080880135915080821115614b9e57600080fd5b50614bab88828901614a80565b9150509295509295909350565b6020808252825182820181905260009190848201906040850190845b81811015614bf057835183529284019291840191600101614bd4565b50909695505050505050565b60208152600061111160208301846146ec565b6000610160808352614c238184018f6146c0565b90508c60208401528b60408401528a60608401528960808401528860a08401528760c08401528660e08401528561010084015284610120840152828103610140840152614c7081856146c0565b9e9d5050505050505050505050505050565b6020815260008251610160806020850152614ca16101808501836146c0565b9150602085015160408501526040850151606085015260608501516080850152608085015160a085015260a085015160c085015260c085015160e085015260e0850151610100818187015280870151915050610120818187015280870151915050610140818187015280870151915050601f1985840301828601526147c783826146c0565b60008060408385031215614d3957600080fd5b8235614d4481614846565b91506020830135614d5481614846565b809150509250929050565b60006101608284031215614d7257600080fd5b614d7a614a56565b9050813567ffffffffffffffff80821115614d9457600080fd5b614da085838601614a80565b83526020840135602084015260408401356040840152606084013560608401526080840135608084015260a084013560a084015260c084013560c084015260e084013560e0840152610100915081840135828401526101209150818401358284015261014091508184013581811115614e1857600080fd5b614e2486828701614a80565b8385015250505092915050565b600060208284031215614e4357600080fd5b813567ffffffffffffffff811115614e5a57600080fd5b6142d384828501614d5f565b60008060408385031215614e7957600080fd5b82359150602083013567ffffffffffffffff811115614e9757600080fd5b614ea385828601614d5f565b9150509250929050565b600181811c90821680614ec157607f821691505b60208210811415614ee257634e487b7160e01b600052602260045260246000fd5b50919050565b600060208284031215614efa57600080fd5b5051919050565b600060208284031215614f1357600080fd5b815161111181614846565b634e487b7160e01b600052601160045260246000fd5b60008219821115614f4757614f47614f1e565b500190565b600082821015614f5e57614f5e614f1e565b500390565b600082614f8057634e487b7160e01b600052601260045260246000fd5b500490565b634e487b7160e01b600052603260045260246000fd5b634e487b7160e01b600052603160045260246000fd5b6000600019821415614fc557614fc5614f1e565b5060010190565b6001600160a01b03831681526040602082015260006142d360408301846146c0565b60006020828403121561500057600080fd5b8151801515811461111157600080fd5b60008251615022818460208701614694565b919091019291505056fea2646970667358221220396f7becfcd635cefa0a3ab30a8790b2be2850d5b6bdfb66bd798f11338e2e4464736f6c63430008090033",
  "linkReferences": {},
  "deployedLinkReferences": {}
}